{
  "contractName": "AccountManagement",
  "abi": [
    {
      "inputs": [
        {
          "internalType": "address",
          "name": "",
          "type": "address"
        }
      ],
      "name": "accounts",
      "outputs": [
        {
          "internalType": "string",
          "name": "fullName",
          "type": "string"
        },
        {
          "internalType": "uint256",
          "name": "age",
          "type": "uint256"
        },
        {
          "internalType": "string",
          "name": "role",
          "type": "string"
        }
      ],
      "stateMutability": "view",
      "type": "function"
    },
    {
      "inputs": [
        {
          "internalType": "address",
          "name": "accountAddress",
          "type": "address"
        },
        {
          "internalType": "string",
          "name": "newFullName",
          "type": "string"
        },
        {
          "internalType": "uint256",
          "name": "newAge",
          "type": "uint256"
        },
        {
          "internalType": "string",
          "name": "newRole",
          "type": "string"
        }
      ],
      "name": "updateAccount",
      "outputs": [],
      "stateMutability": "nonpayable",
      "type": "function"
    },
    {
      "inputs": [
        {
          "internalType": "address",
          "name": "accountAddress",
          "type": "address"
        }
      ],
      "name": "accountExists",
      "outputs": [
        {
          "internalType": "bool",
          "name": "",
          "type": "bool"
        }
      ],
      "stateMutability": "view",
      "type": "function"
    }
  ],
  "bytecode": "0x608060405234801561001057600080fd5b506107d4806100206000396000f3fe608060405234801561001057600080fd5b50600436106100415760003560e01c80635e5c06e21461004657806375cd51ed1461007857806392f33025146100a8575b600080fd5b610060600480360381019061005b91906103e4565b6100c4565b60405161006f939291906104c3565b60405180910390f35b610092600480360381019061008d91906103e4565b6101fe565b60405161009f9190610523565b60405180910390f35b6100c260048036038101906100bd919061069f565b61024b565b005b60006020528060005260406000206000915090508060000180546100e79061076d565b80601f01602080910402602001604051908101604052809291908181526020018280546101139061076d565b80156101605780601f1061013557610100808354040283529160200191610160565b820191906000526020600020905b81548152906001019060200180831161014357829003601f168201915b50505050509080600101549080600201805461017b9061076d565b80601f01602080910402602001604051908101604052809291908181526020018280546101a79061076d565b80156101f45780601f106101c9576101008083540402835291602001916101f4565b820191906000526020600020905b8154815290600101906020018083116101d757829003601f168201915b5050505050905083565b6000806000808473ffffffffffffffffffffffffffffffffffffffff1673ffffffffffffffffffffffffffffffffffffffff16815260200190815260200160002060010154119050919050565b60008060008673ffffffffffffffffffffffffffffffffffffffff1673ffffffffffffffffffffffffffffffffffffffff1681526020019081526020016000209050838160000190805190602001906102a59291906102cf565b50828160010181905550818160020190805190602001906102c79291906102cf565b505050505050565b8280546102db9061076d565b90600052602060002090601f0160209004810192826102fd5760008555610344565b82601f1061031657805160ff1916838001178555610344565b82800160010185558215610344579182015b82811115610343578251825591602001919060010190610328565b5b5090506103519190610355565b5090565b5b8082111561036e576000816000905550600101610356565b5090565b6000604051905090565b600080fd5b600080fd5b600073ffffffffffffffffffffffffffffffffffffffff82169050919050565b60006103b182610386565b9050919050565b6103c1816103a6565b81146103cc57600080fd5b50565b6000813590506103de816103b8565b92915050565b6000602082840312156103fa576103f961037c565b5b6000610408848285016103cf565b91505092915050565b600081519050919050565b600082825260208201905092915050565b60005b8381101561044b578082015181840152602081019050610430565b8381111561045a576000848401525b50505050565b6000601f19601f8301169050919050565b600061047c82610411565b610486818561041c565b935061049681856020860161042d565b61049f81610460565b840191505092915050565b6000819050919050565b6104bd816104aa565b82525050565b600060608201905081810360008301526104dd8186610471565b90506104ec60208301856104b4565b81810360408301526104fe8184610471565b9050949350505050565b60008115159050919050565b61051d81610508565b82525050565b60006020820190506105386000830184610514565b92915050565b600080fd5b600080fd5b7f4e487b7100000000000000000000000000000000000000000000000000000000600052604160045260246000fd5b61058082610460565b810181811067ffffffffffffffff8211171561059f5761059e610548565b5b80604052505050565b60006105b2610372565b90506105be8282610577565b919050565b600067ffffffffffffffff8211156105de576105dd610548565b5b6105e782610460565b9050602081019050919050565b82818337600083830152505050565b6000610616610611846105c3565b6105a8565b90508281526020810184848401111561063257610631610543565b5b61063d8482856105f4565b509392505050565b600082601f83011261065a5761065961053e565b5b813561066a848260208601610603565b91505092915050565b61067c816104aa565b811461068757600080fd5b50565b60008135905061069981610673565b92915050565b600080600080608085870312156106b9576106b861037c565b5b60006106c7878288016103cf565b945050602085013567ffffffffffffffff8111156106e8576106e7610381565b5b6106f487828801610645565b93505060406107058782880161068a565b925050606085013567ffffffffffffffff81111561072657610725610381565b5b61073287828801610645565b91505092959194509250565b7f4e487b7100000000000000000000000000000000000000000000000000000000600052602260045260246000fd5b6000600282049050600182168061078557607f821691505b6020821081036107985761079761073e565b5b5091905056fea2646970667358221220c13cb61c31bbf22c73c3e96e6899d1667b82b2bab195aee88e6f79f0e6dd50c064736f6c634300080d0033",
  "immutableReferences": {},
  "source": "// SPDX-License-Identifier: MIT \r\n// AccountManagement.sol\r\npragma solidity ^0.8.13;\r\n\r\ncontract AccountManagement {\r\n    struct Account {\r\n        string fullName;\r\n        uint age;\r\n        string role;\r\n    }\r\n\r\n    mapping(address => Account) public accounts;\r\n\r\n    function updateAccount(address accountAddress, string memory newFullName, uint newAge, string memory newRole) public {\r\n        Account storage account = accounts[accountAddress];\r\n        account.fullName = newFullName;\r\n        account.age = newAge;\r\n        account.role = newRole;\r\n    }\r\n\r\n    function accountExists(address accountAddress) public view returns (bool) {\r\n        return accounts[accountAddress].age > 0;\r\n    }\r\n\r\n\r\n}\r\n",
  "sourcePath": "D:\\Files\\Codes\\Block Chain\\HappPawsDApp-1.0\\contracts\\AccountManagement.sol",
  "compiler": {
    "name": "solc",
    "version": "0.8.13+commit.abaa5c0e.Emscripten.clang"
  },
  "schemaVersion": "3.4.16",
  "updatedAt": "2024-03-11T06:09:49.232Z",
  "networkType": "ethereum",
  "devdoc": {
    "kind": "dev",
    "methods": {},
    "version": 1
  },
  "userdoc": {
    "kind": "user",
    "methods": {},
    "version": 1
  }
}