{
  "contractName": "PetManagementv2",
  "abi": [
    {
      "inputs": [],
      "stateMutability": "nonpayable",
      "type": "constructor"
    },
    {
      "inputs": [],
      "name": "appointmentCount",
      "outputs": [
        {
          "internalType": "uint256",
          "name": "",
          "type": "uint256"
        }
      ],
      "stateMutability": "view",
      "type": "function",
      "constant": true
    },
    {
      "inputs": [
        {
          "internalType": "uint256",
          "name": "",
          "type": "uint256"
        }
      ],
      "name": "appointments",
      "outputs": [
        {
          "internalType": "uint256",
          "name": "id",
          "type": "uint256"
        },
        {
          "internalType": "string",
          "name": "vet",
          "type": "string"
        },
        {
          "internalType": "string",
          "name": "complaint",
          "type": "string"
        },
        {
          "internalType": "string",
          "name": "assessment",
          "type": "string"
        },
        {
          "internalType": "string",
          "name": "weight",
          "type": "string"
        },
        {
          "internalType": "string",
          "name": "diagnostic",
          "type": "string"
        },
        {
          "internalType": "string",
          "name": "medication",
          "type": "string"
        },
        {
          "internalType": "string",
          "name": "date",
          "type": "string"
        },
        {
          "internalType": "string",
          "name": "temperature",
          "type": "string"
        },
        {
          "internalType": "string",
          "name": "laboratory",
          "type": "string"
        },
        {
          "internalType": "string",
          "name": "remarks",
          "type": "string"
        },
        {
          "internalType": "uint256",
          "name": "petId",
          "type": "uint256"
        }
      ],
      "stateMutability": "view",
      "type": "function",
      "constant": true
    },
    {
      "inputs": [],
      "name": "ownerCount",
      "outputs": [
        {
          "internalType": "uint256",
          "name": "",
          "type": "uint256"
        }
      ],
      "stateMutability": "view",
      "type": "function",
      "constant": true
    },
    {
      "inputs": [
        {
          "internalType": "uint256",
          "name": "",
          "type": "uint256"
        }
      ],
      "name": "owners",
      "outputs": [
        {
          "internalType": "uint256",
          "name": "id",
          "type": "uint256"
        },
        {
          "internalType": "string",
          "name": "surname",
          "type": "string"
        },
        {
          "internalType": "string",
          "name": "firstname",
          "type": "string"
        },
        {
          "internalType": "string",
          "name": "contactNumber",
          "type": "string"
        },
        {
          "internalType": "string",
          "name": "email",
          "type": "string"
        }
      ],
      "stateMutability": "view",
      "type": "function",
      "constant": true
    },
    {
      "inputs": [],
      "name": "petCount",
      "outputs": [
        {
          "internalType": "uint256",
          "name": "",
          "type": "uint256"
        }
      ],
      "stateMutability": "view",
      "type": "function",
      "constant": true
    },
    {
      "inputs": [
        {
          "internalType": "uint256",
          "name": "",
          "type": "uint256"
        }
      ],
      "name": "pets",
      "outputs": [
        {
          "internalType": "uint256",
          "name": "id",
          "type": "uint256"
        },
        {
          "internalType": "string",
          "name": "name",
          "type": "string"
        },
        {
          "internalType": "string",
          "name": "birthdate",
          "type": "string"
        },
        {
          "internalType": "string",
          "name": "species",
          "type": "string"
        },
        {
          "internalType": "string",
          "name": "breed",
          "type": "string"
        },
        {
          "internalType": "string",
          "name": "sex",
          "type": "string"
        },
        {
          "internalType": "string",
          "name": "ownerName",
          "type": "string"
        },
        {
          "internalType": "uint256",
          "name": "ownerId",
          "type": "uint256"
        }
      ],
      "stateMutability": "view",
      "type": "function",
      "constant": true
    },
    {
      "inputs": [
        {
          "internalType": "string",
          "name": "_surname",
          "type": "string"
        },
        {
          "internalType": "string",
          "name": "_firstname",
          "type": "string"
        },
        {
          "internalType": "string",
          "name": "_contactNumber",
          "type": "string"
        },
        {
          "internalType": "string",
          "name": "_email",
          "type": "string"
        }
      ],
      "name": "addOwner",
      "outputs": [],
      "stateMutability": "nonpayable",
      "type": "function"
    },
    {
      "inputs": [
        {
          "internalType": "string",
          "name": "_name",
          "type": "string"
        },
        {
          "internalType": "string",
          "name": "_birthdate",
          "type": "string"
        },
        {
          "internalType": "string",
          "name": "_species",
          "type": "string"
        },
        {
          "internalType": "string",
          "name": "_breed",
          "type": "string"
        },
        {
          "internalType": "string",
          "name": "_sex",
          "type": "string"
        },
        {
          "internalType": "string",
          "name": "_ownerName",
          "type": "string"
        },
        {
          "internalType": "uint256",
          "name": "_ownerId",
          "type": "uint256"
        }
      ],
      "name": "addPet",
      "outputs": [],
      "stateMutability": "nonpayable",
      "type": "function"
    },
    {
      "inputs": [
        {
          "internalType": "string",
          "name": "_vet",
          "type": "string"
        },
        {
          "internalType": "string",
          "name": "_complaint",
          "type": "string"
        },
        {
          "internalType": "string",
          "name": "_assessment",
          "type": "string"
        },
        {
          "internalType": "string",
          "name": "_weight",
          "type": "string"
        },
        {
          "internalType": "string",
          "name": "_diagnostic",
          "type": "string"
        },
        {
          "internalType": "string",
          "name": "_medication",
          "type": "string"
        },
        {
          "internalType": "string",
          "name": "_date",
          "type": "string"
        },
        {
          "internalType": "string",
          "name": "_temperature",
          "type": "string"
        },
        {
          "internalType": "string",
          "name": "_laboratory",
          "type": "string"
        },
        {
          "internalType": "string",
          "name": "_remarks",
          "type": "string"
        },
        {
          "internalType": "uint256",
          "name": "_petId",
          "type": "uint256"
        }
      ],
      "name": "addAppointment",
      "outputs": [],
      "stateMutability": "nonpayable",
      "type": "function"
    },
    {
      "inputs": [
        {
          "internalType": "uint256",
          "name": "_ownerId",
          "type": "uint256"
        }
      ],
      "name": "getOwnerById",
      "outputs": [
        {
          "internalType": "uint256",
          "name": "",
          "type": "uint256"
        },
        {
          "internalType": "string",
          "name": "",
          "type": "string"
        },
        {
          "internalType": "string",
          "name": "",
          "type": "string"
        },
        {
          "internalType": "string",
          "name": "",
          "type": "string"
        }
      ],
      "stateMutability": "view",
      "type": "function",
      "constant": true
    },
    {
      "inputs": [
        {
          "internalType": "uint256",
          "name": "_ownerId",
          "type": "uint256"
        }
      ],
      "name": "getPetsByOwner",
      "outputs": [
        {
          "internalType": "uint256[]",
          "name": "",
          "type": "uint256[]"
        }
      ],
      "stateMutability": "view",
      "type": "function",
      "constant": true
    },
    {
      "inputs": [
        {
          "internalType": "uint256",
          "name": "_petId",
          "type": "uint256"
        }
      ],
      "name": "getPetById",
      "outputs": [
        {
          "internalType": "uint256",
          "name": "",
          "type": "uint256"
        },
        {
          "internalType": "string",
          "name": "",
          "type": "string"
        },
        {
          "internalType": "string",
          "name": "",
          "type": "string"
        },
        {
          "internalType": "string",
          "name": "",
          "type": "string"
        },
        {
          "internalType": "string",
          "name": "",
          "type": "string"
        },
        {
          "internalType": "string",
          "name": "",
          "type": "string"
        },
        {
          "internalType": "string",
          "name": "",
          "type": "string"
        },
        {
          "internalType": "uint256",
          "name": "",
          "type": "uint256"
        }
      ],
      "stateMutability": "view",
      "type": "function",
      "constant": true
    },
    {
      "inputs": [
        {
          "internalType": "uint256",
          "name": "_petId",
          "type": "uint256"
        }
      ],
      "name": "getAppointmentByPet",
      "outputs": [
        {
          "internalType": "uint256[]",
          "name": "",
          "type": "uint256[]"
        }
      ],
      "stateMutability": "view",
      "type": "function",
      "constant": true
    },
    {
      "inputs": [
        {
          "internalType": "uint256",
          "name": "_appointmentId",
          "type": "uint256"
        }
      ],
      "name": "getAppointmentById",
      "outputs": [
        {
          "internalType": "uint256",
          "name": "",
          "type": "uint256"
        },
        {
          "internalType": "string",
          "name": "",
          "type": "string"
        },
        {
          "internalType": "string",
          "name": "",
          "type": "string"
        },
        {
          "internalType": "string",
          "name": "",
          "type": "string"
        },
        {
          "internalType": "string",
          "name": "",
          "type": "string"
        },
        {
          "internalType": "string",
          "name": "",
          "type": "string"
        },
        {
          "internalType": "string",
          "name": "",
          "type": "string"
        },
        {
          "internalType": "string",
          "name": "",
          "type": "string"
        },
        {
          "internalType": "string",
          "name": "",
          "type": "string"
        },
        {
          "internalType": "string",
          "name": "",
          "type": "string"
        },
        {
          "internalType": "string",
          "name": "",
          "type": "string"
        },
        {
          "internalType": "uint256",
          "name": "",
          "type": "uint256"
        }
      ],
      "stateMutability": "view",
      "type": "function",
      "constant": true
    },
    {
      "inputs": [
        {
          "internalType": "uint256",
          "name": "_ownerId",
          "type": "uint256"
        },
        {
          "internalType": "string",
          "name": "_surname",
          "type": "string"
        },
        {
          "internalType": "string",
          "name": "_firstname",
          "type": "string"
        },
        {
          "internalType": "string",
          "name": "_contactNumber",
          "type": "string"
        },
        {
          "internalType": "string",
          "name": "_email",
          "type": "string"
        }
      ],
      "name": "updateOwner",
      "outputs": [],
      "stateMutability": "nonpayable",
      "type": "function"
    },
    {
      "inputs": [
        {
          "internalType": "uint256",
          "name": "_petId",
          "type": "uint256"
        },
        {
          "internalType": "string",
          "name": "_name",
          "type": "string"
        },
        {
          "internalType": "string",
          "name": "_birthdate",
          "type": "string"
        },
        {
          "internalType": "string",
          "name": "_species",
          "type": "string"
        },
        {
          "internalType": "string",
          "name": "_breed",
          "type": "string"
        },
        {
          "internalType": "string",
          "name": "_sex",
          "type": "string"
        }
      ],
      "name": "updatePet",
      "outputs": [],
      "stateMutability": "nonpayable",
      "type": "function"
    }
  ],
  "bytecode": "0x608060405234801561001057600080fd5b5060006003819055506000600481905550600060058190555061334d806100386000396000f3fe608060405234801561001057600080fd5b50600436106101005760003560e01c8063b2969ef911610097578063cfb869bf11610066578063cfb869bf146102f5578063d85c7f861461032c578063ed5a53601461035c578063eebc3fb21461037857610100565b8063b2969ef914610268578063bb380ed714610284578063cb920509146102a0578063cd619f58146102d757610100565b806368fa236c116100d357806368fa236c146101ae57806376bf001c146101de5780639790dd4a14610211578063aac3b6c31461024c57610100565b8063025e7c27146101055780630db026221461013957806312dc9013146101575780633884b50b14610192575b600080fd5b61011f600480360381019061011a91906125c1565b610396565b604051610130959493929190612696565b60405180910390f35b6101416105ec565b60405161014e9190612705565b60405180910390f35b610171600480360381019061016c91906125c1565b6105f2565b6040516101899c9b9a99989796959493929190612720565b60405180910390f35b6101ac60048036038101906101a79190612955565b610ba2565b005b6101c860048036038101906101c391906125c1565b610dab565b6040516101d59190612c1f565b60405180910390f35b6101f860048036038101906101f391906125c1565b610e19565b6040516102089493929190612c41565b60405180910390f35b61022b600480360381019061022691906125c1565b611110565b6040516102439c9b9a99989796959493929190612720565b60405180910390f35b61026660048036038101906102619190612c9b565b611774565b005b610282600480360381019061027d9190612d72565b6118bd565b005b61029e60048036038101906102999190612e8b565b61199f565b005b6102ba60048036038101906102b591906125c1565b611a67565b6040516102ce989796959493929190612f76565b60405180910390f35b6102df611eb2565b6040516102ec9190612705565b60405180910390f35b61030f600480360381019061030a91906125c1565b611eb8565b604051610323989796959493929190612f76565b60405180910390f35b610346600480360381019061034191906125c1565b612230565b6040516103539190612c1f565b60405180910390f35b6103766004803603810190610371919061301e565b61229e565b005b610380612481565b60405161038d9190612705565b60405180910390f35b60016020528060005260406000206000915090508060000154908060010180546103bf90613197565b80601f01602080910402602001604051908101604052809291908181526020018280546103eb90613197565b80156104385780601f1061040d57610100808354040283529160200191610438565b820191906000526020600020905b81548152906001019060200180831161041b57829003601f168201915b50505050509080600201805461044d90613197565b80601f016020809104026020016040519081016040528092919081815260200182805461047990613197565b80156104c65780601f1061049b576101008083540402835291602001916104c6565b820191906000526020600020905b8154815290600101906020018083116104a957829003601f168201915b5050505050908060030180546104db90613197565b80601f016020809104026020016040519081016040528092919081815260200182805461050790613197565b80156105545780601f1061052957610100808354040283529160200191610554565b820191906000526020600020905b81548152906001019060200180831161053757829003601f168201915b50505050509080600401805461056990613197565b80601f016020809104026020016040519081016040528092919081815260200182805461059590613197565b80156105e25780601f106105b7576101008083540402835291602001916105e2565b820191906000526020600020905b8154815290600101906020018083116105c557829003601f168201915b5050505050905085565b60035481565b600060205280600052604060002060009150905080600001549080600101805461061b90613197565b80601f016020809104026020016040519081016040528092919081815260200182805461064790613197565b80156106945780601f1061066957610100808354040283529160200191610694565b820191906000526020600020905b81548152906001019060200180831161067757829003601f168201915b5050505050908060020180546106a990613197565b80601f01602080910402602001604051908101604052809291908181526020018280546106d590613197565b80156107225780601f106106f757610100808354040283529160200191610722565b820191906000526020600020905b81548152906001019060200180831161070557829003601f168201915b50505050509080600301805461073790613197565b80601f016020809104026020016040519081016040528092919081815260200182805461076390613197565b80156107b05780601f10610785576101008083540402835291602001916107b0565b820191906000526020600020905b81548152906001019060200180831161079357829003601f168201915b5050505050908060040180546107c590613197565b80601f01602080910402602001604051908101604052809291908181526020018280546107f190613197565b801561083e5780601f106108135761010080835404028352916020019161083e565b820191906000526020600020905b81548152906001019060200180831161082157829003601f168201915b50505050509080600501805461085390613197565b80601f016020809104026020016040519081016040528092919081815260200182805461087f90613197565b80156108cc5780601f106108a1576101008083540402835291602001916108cc565b820191906000526020600020905b8154815290600101906020018083116108af57829003601f168201915b5050505050908060060180546108e190613197565b80601f016020809104026020016040519081016040528092919081815260200182805461090d90613197565b801561095a5780601f1061092f5761010080835404028352916020019161095a565b820191906000526020600020905b81548152906001019060200180831161093d57829003601f168201915b50505050509080600701805461096f90613197565b80601f016020809104026020016040519081016040528092919081815260200182805461099b90613197565b80156109e85780601f106109bd576101008083540402835291602001916109e8565b820191906000526020600020905b8154815290600101906020018083116109cb57829003601f168201915b5050505050908060080180546109fd90613197565b80601f0160208091040260200160405190810160405280929190818152602001828054610a2990613197565b8015610a765780601f10610a4b57610100808354040283529160200191610a76565b820191906000526020600020905b815481529060010190602001808311610a5957829003601f168201915b505050505090806009018054610a8b90613197565b80601f0160208091040260200160405190810160405280929190818152602001828054610ab790613197565b8015610b045780601f10610ad957610100808354040283529160200191610b04565b820191906000526020600020905b815481529060010190602001808311610ae757829003601f168201915b50505050509080600a018054610b1990613197565b80601f0160208091040260200160405190810160405280929190818152602001828054610b4590613197565b8015610b925780601f10610b6757610100808354040283529160200191610b92565b820191906000526020600020905b815481529060010190602001808311610b7557829003601f168201915b50505050509080600b015490508c565b60056000815480929190610bb5906131f7565b919050555060405180610180016040528060055481526020018c81526020018b81526020018a8152602001898152602001888152602001878152602001868152602001858152602001848152602001838152602001828152506000806005548152602001908152602001600020600082015181600001556020820151816001019080519060200190610c48929190612487565b506040820151816002019080519060200190610c65929190612487565b506060820151816003019080519060200190610c82929190612487565b506080820151816004019080519060200190610c9f929190612487565b5060a0820151816005019080519060200190610cbc929190612487565b5060c0820151816006019080519060200190610cd9929190612487565b5060e0820151816007019080519060200190610cf6929190612487565b50610100820151816008019080519060200190610d14929190612487565b50610120820151816009019080519060200190610d32929190612487565b5061014082015181600a019080519060200190610d50929190612487565b5061016082015181600b01559050506002600082815260200190815260200160002060080160055490806001815401808255809150506001900390600052602060002001600090919091909150555050505050505050505050565b606060016000838152602001908152602001600020600501805480602002602001604051908101604052809291908181526020018280548015610e0d57602002820191906000526020600020905b815481526020019060010190808311610df9575b50505050509050919050565b600060608060606000600160008781526020019081526020016000206040518060c001604052908160008201548152602001600182018054610e5a90613197565b80601f0160208091040260200160405190810160405280929190818152602001828054610e8690613197565b8015610ed35780601f10610ea857610100808354040283529160200191610ed3565b820191906000526020600020905b815481529060010190602001808311610eb657829003601f168201915b50505050508152602001600282018054610eec90613197565b80601f0160208091040260200160405190810160405280929190818152602001828054610f1890613197565b8015610f655780601f10610f3a57610100808354040283529160200191610f65565b820191906000526020600020905b815481529060010190602001808311610f4857829003601f168201915b50505050508152602001600382018054610f7e90613197565b80601f0160208091040260200160405190810160405280929190818152602001828054610faa90613197565b8015610ff75780601f10610fcc57610100808354040283529160200191610ff7565b820191906000526020600020905b815481529060010190602001808311610fda57829003601f168201915b5050505050815260200160048201805461101090613197565b80601f016020809104026020016040519081016040528092919081815260200182805461103c90613197565b80156110895780601f1061105e57610100808354040283529160200191611089565b820191906000526020600020905b81548152906001019060200180831161106c57829003601f168201915b50505050508152602001600582018054806020026020016040519081016040528092919081815260200182805480156110e157602002820191906000526020600020905b8154815260200190600101908083116110cd575b505050505081525050905080600001518160200151826040015183606001519450945094509450509193509193565b60006060806060806060806060806060806000806000808f8152602001908152602001600020604051806101800160405290816000820154815260200160018201805461115c90613197565b80601f016020809104026020016040519081016040528092919081815260200182805461118890613197565b80156111d55780601f106111aa576101008083540402835291602001916111d5565b820191906000526020600020905b8154815290600101906020018083116111b857829003601f168201915b505050505081526020016002820180546111ee90613197565b80601f016020809104026020016040519081016040528092919081815260200182805461121a90613197565b80156112675780601f1061123c57610100808354040283529160200191611267565b820191906000526020600020905b81548152906001019060200180831161124a57829003601f168201915b5050505050815260200160038201805461128090613197565b80601f01602080910402602001604051908101604052809291908181526020018280546112ac90613197565b80156112f95780601f106112ce576101008083540402835291602001916112f9565b820191906000526020600020905b8154815290600101906020018083116112dc57829003601f168201915b5050505050815260200160048201805461131290613197565b80601f016020809104026020016040519081016040528092919081815260200182805461133e90613197565b801561138b5780601f106113605761010080835404028352916020019161138b565b820191906000526020600020905b81548152906001019060200180831161136e57829003601f168201915b505050505081526020016005820180546113a490613197565b80601f01602080910402602001604051908101604052809291908181526020018280546113d090613197565b801561141d5780601f106113f25761010080835404028352916020019161141d565b820191906000526020600020905b81548152906001019060200180831161140057829003601f168201915b5050505050815260200160068201805461143690613197565b80601f016020809104026020016040519081016040528092919081815260200182805461146290613197565b80156114af5780601f10611484576101008083540402835291602001916114af565b820191906000526020600020905b81548152906001019060200180831161149257829003601f168201915b505050505081526020016007820180546114c890613197565b80601f01602080910402602001604051908101604052809291908181526020018280546114f490613197565b80156115415780601f1061151657610100808354040283529160200191611541565b820191906000526020600020905b81548152906001019060200180831161152457829003601f168201915b5050505050815260200160088201805461155a90613197565b80601f016020809104026020016040519081016040528092919081815260200182805461158690613197565b80156115d35780601f106115a8576101008083540402835291602001916115d3565b820191906000526020600020905b8154815290600101906020018083116115b657829003601f168201915b505050505081526020016009820180546115ec90613197565b80601f016020809104026020016040519081016040528092919081815260200182805461161890613197565b80156116655780601f1061163a57610100808354040283529160200191611665565b820191906000526020600020905b81548152906001019060200180831161164857829003601f168201915b50505050508152602001600a8201805461167e90613197565b80601f01602080910402602001604051908101604052809291908181526020018280546116aa90613197565b80156116f75780601f106116cc576101008083540402835291602001916116f7565b820191906000526020600020905b8154815290600101906020018083116116da57829003601f168201915b50505050508152602001600b820154815250509050806000015181602001518260400151836060015184608001518560a001518660c001518760e001518861010001518961012001518a61014001518b61016001519c509c509c509c509c509c509c509c509c509c509c509c505091939597999b5091939597999b565b60036000815480929190611787906131f7565b91905055506040518060c001604052806003548152602001858152602001848152602001838152602001828152602001600067ffffffffffffffff8111156117d2576117d161282a565b5b6040519080825280602002602001820160405280156118005781602001602082028036833780820191505090505b5081525060016000600354815260200190815260200160002060008201518160000155602082015181600101908051906020019061183f929190612487565b50604082015181600201908051906020019061185c929190612487565b506060820151816003019080519060200190611879929190612487565b506080820151816004019080519060200190611896929190612487565b5060a08201518160050190805190602001906118b392919061250d565b5090505050505050565b600454861115611902576040517f08c379a00000000000000000000000000000000000000000000000000000000081526004016118f99061328b565b60405180910390fd5b600060026000888152602001908152602001600020905085816001019080519060200190611931929190612487565b508481600201908051906020019061194a929190612487565b5083816003019080519060200190611963929190612487565b508281600401908051906020019061197c929190612487565b5081816005019080519060200190611995929190612487565b5050505050505050565b6003548511156119e4576040517f08c379a00000000000000000000000000000000000000000000000000000000081526004016119db906132f7565b60405180910390fd5b600060016000878152602001908152602001600020905084816001019080519060200190611a13929190612487565b5083816002019080519060200190611a2c929190612487565b5082816003019080519060200190611a45929190612487565b5081816004019080519060200190611a5e929190612487565b50505050505050565b6000606080606080606080600080600260008b81526020019081526020016000206040518061012001604052908160008201548152602001600182018054611aae90613197565b80601f0160208091040260200160405190810160405280929190818152602001828054611ada90613197565b8015611b275780601f10611afc57610100808354040283529160200191611b27565b820191906000526020600020905b815481529060010190602001808311611b0a57829003601f168201915b50505050508152602001600282018054611b4090613197565b80601f0160208091040260200160405190810160405280929190818152602001828054611b6c90613197565b8015611bb95780601f10611b8e57610100808354040283529160200191611bb9565b820191906000526020600020905b815481529060010190602001808311611b9c57829003601f168201915b50505050508152602001600382018054611bd290613197565b80601f0160208091040260200160405190810160405280929190818152602001828054611bfe90613197565b8015611c4b5780601f10611c2057610100808354040283529160200191611c4b565b820191906000526020600020905b815481529060010190602001808311611c2e57829003601f168201915b50505050508152602001600482018054611c6490613197565b80601f0160208091040260200160405190810160405280929190818152602001828054611c9090613197565b8015611cdd5780601f10611cb257610100808354040283529160200191611cdd565b820191906000526020600020905b815481529060010190602001808311611cc057829003601f168201915b50505050508152602001600582018054611cf690613197565b80601f0160208091040260200160405190810160405280929190818152602001828054611d2290613197565b8015611d6f5780601f10611d4457610100808354040283529160200191611d6f565b820191906000526020600020905b815481529060010190602001808311611d5257829003601f168201915b50505050508152602001600682018054611d8890613197565b80601f0160208091040260200160405190810160405280929190818152602001828054611db490613197565b8015611e015780601f10611dd657610100808354040283529160200191611e01565b820191906000526020600020905b815481529060010190602001808311611de457829003601f168201915b505050505081526020016007820154815260200160088201805480602002602001604051908101604052809291908181526020018280548015611e6357602002820191906000526020600020905b815481526020019060010190808311611e4f575b5050505050815250509050806000015181602001518260400151836060015184608001518560a001518660c001518760e001519850985098509850985098509850985050919395975091939597565b60045481565b6002602052806000526040600020600091509050806000015490806001018054611ee190613197565b80601f0160208091040260200160405190810160405280929190818152602001828054611f0d90613197565b8015611f5a5780601f10611f2f57610100808354040283529160200191611f5a565b820191906000526020600020905b815481529060010190602001808311611f3d57829003601f168201915b505050505090806002018054611f6f90613197565b80601f0160208091040260200160405190810160405280929190818152602001828054611f9b90613197565b8015611fe85780601f10611fbd57610100808354040283529160200191611fe8565b820191906000526020600020905b815481529060010190602001808311611fcb57829003601f168201915b505050505090806003018054611ffd90613197565b80601f016020809104026020016040519081016040528092919081815260200182805461202990613197565b80156120765780601f1061204b57610100808354040283529160200191612076565b820191906000526020600020905b81548152906001019060200180831161205957829003601f168201915b50505050509080600401805461208b90613197565b80601f01602080910402602001604051908101604052809291908181526020018280546120b790613197565b80156121045780601f106120d957610100808354040283529160200191612104565b820191906000526020600020905b8154815290600101906020018083116120e757829003601f168201915b50505050509080600501805461211990613197565b80601f016020809104026020016040519081016040528092919081815260200182805461214590613197565b80156121925780601f1061216757610100808354040283529160200191612192565b820191906000526020600020905b81548152906001019060200180831161217557829003601f168201915b5050505050908060060180546121a790613197565b80601f01602080910402602001604051908101604052809291908181526020018280546121d390613197565b80156122205780601f106121f557610100808354040283529160200191612220565b820191906000526020600020905b81548152906001019060200180831161220357829003601f168201915b5050505050908060070154905088565b60606002600083815260200190815260200160002060080180548060200260200160405190810160405280929190818152602001828054801561229257602002820191906000526020600020905b81548152602001906001019080831161227e575b50505050509050919050565b600460008154809291906122b1906131f7565b91905055506040518061012001604052806004548152602001888152602001878152602001868152602001858152602001848152602001838152602001828152602001600067ffffffffffffffff81111561230f5761230e61282a565b5b60405190808252806020026020018201604052801561233d5781602001602082028036833780820191505090505b5081525060026000600454815260200190815260200160002060008201518160000155602082015181600101908051906020019061237c929190612487565b506040820151816002019080519060200190612399929190612487565b5060608201518160030190805190602001906123b6929190612487565b5060808201518160040190805190602001906123d3929190612487565b5060a08201518160050190805190602001906123f0929190612487565b5060c082015181600601908051906020019061240d929190612487565b5060e0820151816007015561010082015181600801908051906020019061243592919061250d565b5090505060016000828152602001908152602001600020600501600454908060018154018082558091505060019003906000526020600020016000909190919091505550505050505050565b60055481565b82805461249390613197565b90600052602060002090601f0160209004810192826124b557600085556124fc565b82601f106124ce57805160ff19168380011785556124fc565b828001600101855582156124fc579182015b828111156124fb5782518255916020019190600101906124e0565b5b509050612509919061255a565b5090565b828054828255906000526020600020908101928215612549579160200282015b8281111561254857825182559160200191906001019061252d565b5b509050612556919061255a565b5090565b5b8082111561257357600081600090555060010161255b565b5090565b6000604051905090565b600080fd5b600080fd5b6000819050919050565b61259e8161258b565b81146125a957600080fd5b50565b6000813590506125bb81612595565b92915050565b6000602082840312156125d7576125d6612581565b5b60006125e5848285016125ac565b91505092915050565b6125f78161258b565b82525050565b600081519050919050565b600082825260208201905092915050565b60005b8381101561263757808201518184015260208101905061261c565b83811115612646576000848401525b50505050565b6000601f19601f8301169050919050565b6000612668826125fd565b6126728185612608565b9350612682818560208601612619565b61268b8161264c565b840191505092915050565b600060a0820190506126ab60008301886125ee565b81810360208301526126bd818761265d565b905081810360408301526126d1818661265d565b905081810360608301526126e5818561265d565b905081810360808301526126f9818461265d565b90509695505050505050565b600060208201905061271a60008301846125ee565b92915050565b600061018082019050612736600083018f6125ee565b8181036020830152612748818e61265d565b9050818103604083015261275c818d61265d565b90508181036060830152612770818c61265d565b90508181036080830152612784818b61265d565b905081810360a0830152612798818a61265d565b905081810360c08301526127ac818961265d565b905081810360e08301526127c0818861265d565b90508181036101008301526127d5818761265d565b90508181036101208301526127ea818661265d565b90508181036101408301526127ff818561265d565b905061280f6101608301846125ee565b9d9c50505050505050505050505050565b600080fd5b600080fd5b7f4e487b7100000000000000000000000000000000000000000000000000000000600052604160045260246000fd5b6128628261264c565b810181811067ffffffffffffffff821117156128815761288061282a565b5b80604052505050565b6000612894612577565b90506128a08282612859565b919050565b600067ffffffffffffffff8211156128c0576128bf61282a565b5b6128c98261264c565b9050602081019050919050565b82818337600083830152505050565b60006128f86128f3846128a5565b61288a565b90508281526020810184848401111561291457612913612825565b5b61291f8482856128d6565b509392505050565b600082601f83011261293c5761293b612820565b5b813561294c8482602086016128e5565b91505092915050565b60008060008060008060008060008060006101608c8e03121561297b5761297a612581565b5b60008c013567ffffffffffffffff81111561299957612998612586565b5b6129a58e828f01612927565b9b505060208c013567ffffffffffffffff8111156129c6576129c5612586565b5b6129d28e828f01612927565b9a505060408c013567ffffffffffffffff8111156129f3576129f2612586565b5b6129ff8e828f01612927565b99505060608c013567ffffffffffffffff811115612a2057612a1f612586565b5b612a2c8e828f01612927565b98505060808c013567ffffffffffffffff811115612a4d57612a4c612586565b5b612a598e828f01612927565b97505060a08c013567ffffffffffffffff811115612a7a57612a79612586565b5b612a868e828f01612927565b96505060c08c013567ffffffffffffffff811115612aa757612aa6612586565b5b612ab38e828f01612927565b95505060e08c013567ffffffffffffffff811115612ad457612ad3612586565b5b612ae08e828f01612927565b9450506101008c013567ffffffffffffffff811115612b0257612b01612586565b5b612b0e8e828f01612927565b9350506101208c013567ffffffffffffffff811115612b3057612b2f612586565b5b612b3c8e828f01612927565b925050610140612b4e8e828f016125ac565b9150509295989b509295989b9093969950565b600081519050919050565b600082825260208201905092915050565b6000819050602082019050919050565b612b968161258b565b82525050565b6000612ba88383612b8d565b60208301905092915050565b6000602082019050919050565b6000612bcc82612b61565b612bd68185612b6c565b9350612be183612b7d565b8060005b83811015612c12578151612bf98882612b9c565b9750612c0483612bb4565b925050600181019050612be5565b5085935050505092915050565b60006020820190508181036000830152612c398184612bc1565b905092915050565b6000608082019050612c5660008301876125ee565b8181036020830152612c68818661265d565b90508181036040830152612c7c818561265d565b90508181036060830152612c90818461265d565b905095945050505050565b60008060008060808587031215612cb557612cb4612581565b5b600085013567ffffffffffffffff811115612cd357612cd2612586565b5b612cdf87828801612927565b945050602085013567ffffffffffffffff811115612d0057612cff612586565b5b612d0c87828801612927565b935050604085013567ffffffffffffffff811115612d2d57612d2c612586565b5b612d3987828801612927565b925050606085013567ffffffffffffffff811115612d5a57612d59612586565b5b612d6687828801612927565b91505092959194509250565b60008060008060008060c08789031215612d8f57612d8e612581565b5b6000612d9d89828a016125ac565b965050602087013567ffffffffffffffff811115612dbe57612dbd612586565b5b612dca89828a01612927565b955050604087013567ffffffffffffffff811115612deb57612dea612586565b5b612df789828a01612927565b945050606087013567ffffffffffffffff811115612e1857612e17612586565b5b612e2489828a01612927565b935050608087013567ffffffffffffffff811115612e4557612e44612586565b5b612e5189828a01612927565b92505060a087013567ffffffffffffffff811115612e7257612e71612586565b5b612e7e89828a01612927565b9150509295509295509295565b600080600080600060a08688031215612ea757612ea6612581565b5b6000612eb5888289016125ac565b955050602086013567ffffffffffffffff811115612ed657612ed5612586565b5b612ee288828901612927565b945050604086013567ffffffffffffffff811115612f0357612f02612586565b5b612f0f88828901612927565b935050606086013567ffffffffffffffff811115612f3057612f2f612586565b5b612f3c88828901612927565b925050608086013567ffffffffffffffff811115612f5d57612f5c612586565b5b612f6988828901612927565b9150509295509295909350565b600061010082019050612f8c600083018b6125ee565b8181036020830152612f9e818a61265d565b90508181036040830152612fb2818961265d565b90508181036060830152612fc6818861265d565b90508181036080830152612fda818761265d565b905081810360a0830152612fee818661265d565b905081810360c0830152613002818561265d565b905061301160e08301846125ee565b9998505050505050505050565b600080600080600080600060e0888a03121561303d5761303c612581565b5b600088013567ffffffffffffffff81111561305b5761305a612586565b5b6130678a828b01612927565b975050602088013567ffffffffffffffff81111561308857613087612586565b5b6130948a828b01612927565b965050604088013567ffffffffffffffff8111156130b5576130b4612586565b5b6130c18a828b01612927565b955050606088013567ffffffffffffffff8111156130e2576130e1612586565b5b6130ee8a828b01612927565b945050608088013567ffffffffffffffff81111561310f5761310e612586565b5b61311b8a828b01612927565b93505060a088013567ffffffffffffffff81111561313c5761313b612586565b5b6131488a828b01612927565b92505060c06131598a828b016125ac565b91505092959891949750929550565b7f4e487b7100000000000000000000000000000000000000000000000000000000600052602260045260246000fd5b600060028204905060018216806131af57607f821691505b6020821081036131c2576131c1613168565b5b50919050565b7f4e487b7100000000000000000000000000000000000000000000000000000000600052601160045260246000fd5b60006132028261258b565b91507fffffffffffffffffffffffffffffffffffffffffffffffffffffffffffffffff8203613234576132336131c8565b5b600182019050919050565b7f496e76616c696420706574204944000000000000000000000000000000000000600082015250565b6000613275600e83612608565b91506132808261323f565b602082019050919050565b600060208201905081810360008301526132a481613268565b9050919050565b7f496e76616c6964206f776e657220494400000000000000000000000000000000600082015250565b60006132e1601083612608565b91506132ec826132ab565b602082019050919050565b60006020820190508181036000830152613310816132d4565b905091905056fea2646970667358221220fda2ad80576633c0d40a29f27912559c5274f692d69d830e5dd6cbc3d5bec0f264736f6c634300080d0033",
  "immutableReferences": {},
  "source": "// SPDX-License-Identifier: MIT\n\n\npragma solidity 0.8.13;\n\ncontract PetManagementv2{\n\n    struct Owner{\n        uint256 id;\n        string surname;\n        string firstname;\n        string contactNumber;\n        string email;\n        uint256[] pets;\n    }\n\n    struct Pet{\n        uint256 id;\n        string name;\n        string birthdate;\n        string species;\n        string breed;\n        string sex;\n        string ownerName;\n        uint256 ownerId;\n        uint256[] appointments;\n    }\n\n    struct Appointment{\n        uint256 id;\n        string vet;\n        string complaint;\n        string assessment;\n        string weight;\n        string diagnostic;\n        string medication;\n        string date;\n        string temperature;\n        string laboratory;\n        string remarks;\n        uint256 petId;\n    }\n\n    mapping(uint256 => Appointment) public appointments;\n    mapping (uint256 => Owner) public owners;\n    mapping (uint256 => Pet) public pets;\n    \n    uint256 public ownerCount;\n    uint256 public petCount;\n    uint256 public appointmentCount;\n\n    constructor(){\n        ownerCount = 0;\n        petCount = 0;\n        appointmentCount = 0;\n    }\n\n\n    function addOwner(string memory _surname, string memory _firstname, string memory _contactNumber, string memory _email) public{\n        ownerCount++;\n        owners[ownerCount] = Owner(ownerCount, _surname, _firstname, _contactNumber, _email, new uint256[](0));\n    }\n\n    function addPet(string memory _name, string memory _birthdate, string memory _species, string memory _breed, string memory _sex, string memory _ownerName, uint256 _ownerId) public {\n        petCount++;\n        pets[petCount] = Pet(petCount, _name, _birthdate, _species, _breed, _sex,_ownerName, _ownerId, new uint[](0));\n        owners[_ownerId].pets.push(petCount);\n    }\n\n    function addAppointment(\n        string memory _vet, \n        string memory _complaint, \n        string memory _assessment, \n        string memory _weight, \n        string memory _diagnostic,\n        string memory _medication,\n        string memory _date,\n        string memory _temperature,\n        string memory _laboratory,\n        string memory _remarks,\n        uint256 _petId) public{\n        appointmentCount++;\n        appointments[appointmentCount] = \n        Appointment(\n            appointmentCount, \n            _vet,\n            _complaint,\n            _assessment,\n            _weight,\n            _diagnostic,\n            _medication,\n            _date,\n            _temperature,\n            _laboratory,\n            _remarks,\n            _petId);\n        pets[_petId].appointments.push(appointmentCount);\n    }\n\n    function getOwnerById(uint _ownerId) public view returns(uint256, string memory, string memory, string memory){\n        Owner memory owner = owners[_ownerId];\n        return (owner.id, owner.surname, owner.firstname, owner.contactNumber);\n    }\n\n    function getPetsByOwner(uint256 _ownerId) public view returns (uint256[] memory){\n        return owners[_ownerId].pets;\n    }\n\n    function getPetById(uint256 _petId) public view returns (uint256, string memory, string memory, string memory, string memory, string memory, string memory, uint256){\n        Pet memory pet = pets[_petId];\n        return (pet.id, pet.name, pet.birthdate, pet.species, pet.breed, pet.sex, pet.ownerName, pet.ownerId);\n    }\n\n    function getAppointmentByPet(uint256 _petId) public view returns(uint256[] memory){\n        return pets[_petId].appointments;\n    }\n\n    function getAppointmentById(uint256 _appointmentId)\n     public view returns(\n        uint256, \n        string memory,\n        string memory,\n        string memory,\n        string memory,\n        string memory,\n        string memory,\n        string memory,\n        string memory,\n        string memory,\n        string memory,\n        uint){\n        \n            Appointment memory appointment = appointments[_appointmentId];\n            return (appointment.id, appointment.vet, appointment.complaint, appointment.assessment, appointment.weight, appointment.diagnostic, appointment.medication, appointment.date, appointment.temperature, appointment.laboratory, appointment.remarks, appointment.petId);\n    }\n\n    // Function to update owner's details\n    function updateOwner(\n        uint256 _ownerId,\n        string memory _surname,\n        string memory _firstname,\n        string memory _contactNumber,\n        string memory _email\n    ) public {\n        require(_ownerId <= ownerCount, \"Invalid owner ID\");\n\n        Owner storage owner = owners[_ownerId];\n        owner.surname = _surname;\n        owner.firstname = _firstname;\n        owner.contactNumber = _contactNumber;\n        owner.email = _email;\n    }\n\n    // Function to update pet's details\n    function updatePet(\n        uint256 _petId,\n        string memory _name,\n        string memory _birthdate,\n        string memory _species,\n        string memory _breed,\n        string memory _sex\n    ) public {\n        require(_petId <= petCount, \"Invalid pet ID\");\n\n        Pet storage pet = pets[_petId];\n        pet.name = _name;\n        pet.birthdate = _birthdate;\n        pet.species = _species;\n        pet.breed = _breed;\n        pet.sex = _sex;\n    }\n}",
  "sourcePath": "C:\\Users\\Gilead\\Documents\\HappyPaws\\final\\HappyPawsDApp1.4-master\\HappyPawsDApp1.4-master\\contracts\\PetManagementv2.sol",
  "compiler": {
    "name": "solc",
    "version": "0.8.13+commit.abaa5c0e.Emscripten.clang"
  },
  "schemaVersion": "3.4.16",
  "updatedAt": "2024-06-11T01:15:21.970Z",
  "networkType": "ethereum",
  "devdoc": {
    "kind": "dev",
    "methods": {},
    "version": 1
  },
  "userdoc": {
    "kind": "user",
    "methods": {},
    "version": 1
  }
}