{
  "contractName": "PetManagement",
  "abi": [
    {
      "inputs": [
        {
          "internalType": "uint256",
          "name": "",
          "type": "uint256"
        }
      ],
      "name": "pets",
      "outputs": [
        {
          "internalType": "string",
          "name": "name",
          "type": "string"
        },
        {
          "internalType": "uint256",
          "name": "age",
          "type": "uint256"
        },
        {
          "internalType": "string",
          "name": "breed",
          "type": "string"
        },
        {
          "internalType": "string",
          "name": "species",
          "type": "string"
        },
        {
          "internalType": "string",
          "name": "owner",
          "type": "string"
        },
        {
          "internalType": "uint256",
          "name": "timestamp",
          "type": "uint256"
        },
        {
          "internalType": "string",
          "name": "action",
          "type": "string"
        }
      ],
      "stateMutability": "view",
      "type": "function"
    },
    {
      "inputs": [
        {
          "internalType": "string",
          "name": "petName",
          "type": "string"
        },
        {
          "internalType": "uint256",
          "name": "petAge",
          "type": "uint256"
        },
        {
          "internalType": "string",
          "name": "petBreed",
          "type": "string"
        },
        {
          "internalType": "string",
          "name": "petSpecies",
          "type": "string"
        },
        {
          "internalType": "string",
          "name": "petOwner",
          "type": "string"
        },
        {
          "internalType": "string",
          "name": "petAction",
          "type": "string"
        }
      ],
      "name": "addPet",
      "outputs": [],
      "stateMutability": "nonpayable",
      "type": "function"
    },
    {
      "inputs": [],
      "name": "getPetCount",
      "outputs": [
        {
          "internalType": "uint256",
          "name": "",
          "type": "uint256"
        }
      ],
      "stateMutability": "view",
      "type": "function"
    },
    {
      "inputs": [
        {
          "internalType": "uint256",
          "name": "index",
          "type": "uint256"
        }
      ],
      "name": "getPets",
      "outputs": [
        {
          "components": [
            {
              "internalType": "string",
              "name": "name",
              "type": "string"
            },
            {
              "internalType": "uint256",
              "name": "age",
              "type": "uint256"
            },
            {
              "internalType": "string",
              "name": "breed",
              "type": "string"
            },
            {
              "internalType": "string",
              "name": "species",
              "type": "string"
            },
            {
              "internalType": "string",
              "name": "owner",
              "type": "string"
            },
            {
              "internalType": "uint256",
              "name": "timestamp",
              "type": "uint256"
            },
            {
              "internalType": "string",
              "name": "action",
              "type": "string"
            }
          ],
          "internalType": "struct PetManagement.Pet",
          "name": "",
          "type": "tuple"
        }
      ],
      "stateMutability": "view",
      "type": "function"
    }
  ],
  "bytecode": "0x608060405234801561001057600080fd5b50610fd9806100206000396000f3fe608060405234801561001057600080fd5b506004361061004c5760003560e01c806311c0a89c146100515780634e8933de1461006d578063c2f323411461008b578063cfb869bf146100bb575b600080fd5b61006b60048036038101906100669190610aeb565b6100f1565b005b610075610204565b6040516100829190610c13565b60405180910390f35b6100a560048036038101906100a09190610c2e565b610210565b6040516100b29190610daa565b60405180910390f35b6100d560048036038101906100d09190610c2e565b610581565b6040516100e89796959493929190610e16565b60405180910390f35b60006040518060e001604052808881526020018781526020018681526020018581526020018481526020014281526020018381525090506000819080600181540180825580915050600190039060005260206000209060070201600090919091909150600082015181600001908051906020019061017092919061087b565b5060208201518160010155604082015181600201908051906020019061019792919061087b565b5060608201518160030190805190602001906101b492919061087b565b5060808201518160040190805190602001906101d192919061087b565b5060a0820151816005015560c08201518160060190805190602001906101f892919061087b565b50505050505050505050565b60008080549050905090565b610218610901565b600080549050821061025f576040517f08c379a000000000000000000000000000000000000000000000000000000000815260040161025690610ef4565b60405180910390fd5b6000828154811061027357610272610f14565b5b90600052602060002090600702016040518060e001604052908160008201805461029c90610f72565b80601f01602080910402602001604051908101604052809291908181526020018280546102c890610f72565b80156103155780601f106102ea57610100808354040283529160200191610315565b820191906000526020600020905b8154815290600101906020018083116102f857829003601f168201915b505050505081526020016001820154815260200160028201805461033890610f72565b80601f016020809104026020016040519081016040528092919081815260200182805461036490610f72565b80156103b15780601f10610386576101008083540402835291602001916103b1565b820191906000526020600020905b81548152906001019060200180831161039457829003601f168201915b505050505081526020016003820180546103ca90610f72565b80601f01602080910402602001604051908101604052809291908181526020018280546103f690610f72565b80156104435780601f1061041857610100808354040283529160200191610443565b820191906000526020600020905b81548152906001019060200180831161042657829003601f168201915b5050505050815260200160048201805461045c90610f72565b80601f016020809104026020016040519081016040528092919081815260200182805461048890610f72565b80156104d55780601f106104aa576101008083540402835291602001916104d5565b820191906000526020600020905b8154815290600101906020018083116104b857829003601f168201915b50505050508152602001600582015481526020016006820180546104f890610f72565b80601f016020809104026020016040519081016040528092919081815260200182805461052490610f72565b80156105715780601f1061054657610100808354040283529160200191610571565b820191906000526020600020905b81548152906001019060200180831161055457829003601f168201915b5050505050815250509050919050565b6000818154811061059157600080fd5b90600052602060002090600702016000915090508060000180546105b490610f72565b80601f01602080910402602001604051908101604052809291908181526020018280546105e090610f72565b801561062d5780601f106106025761010080835404028352916020019161062d565b820191906000526020600020905b81548152906001019060200180831161061057829003601f168201915b50505050509080600101549080600201805461064890610f72565b80601f016020809104026020016040519081016040528092919081815260200182805461067490610f72565b80156106c15780601f10610696576101008083540402835291602001916106c1565b820191906000526020600020905b8154815290600101906020018083116106a457829003601f168201915b5050505050908060030180546106d690610f72565b80601f016020809104026020016040519081016040528092919081815260200182805461070290610f72565b801561074f5780601f106107245761010080835404028352916020019161074f565b820191906000526020600020905b81548152906001019060200180831161073257829003601f168201915b50505050509080600401805461076490610f72565b80601f016020809104026020016040519081016040528092919081815260200182805461079090610f72565b80156107dd5780601f106107b2576101008083540402835291602001916107dd565b820191906000526020600020905b8154815290600101906020018083116107c057829003601f168201915b5050505050908060050154908060060180546107f890610f72565b80601f016020809104026020016040519081016040528092919081815260200182805461082490610f72565b80156108715780601f1061084657610100808354040283529160200191610871565b820191906000526020600020905b81548152906001019060200180831161085457829003601f168201915b5050505050905087565b82805461088790610f72565b90600052602060002090601f0160209004810192826108a957600085556108f0565b82601f106108c257805160ff19168380011785556108f0565b828001600101855582156108f0579182015b828111156108ef5782518255916020019190600101906108d4565b5b5090506108fd919061093e565b5090565b6040518060e00160405280606081526020016000815260200160608152602001606081526020016060815260200160008152602001606081525090565b5b8082111561095757600081600090555060010161093f565b5090565b6000604051905090565b600080fd5b600080fd5b600080fd5b600080fd5b6000601f19601f8301169050919050565b7f4e487b7100000000000000000000000000000000000000000000000000000000600052604160045260246000fd5b6109c282610979565b810181811067ffffffffffffffff821117156109e1576109e061098a565b5b80604052505050565b60006109f461095b565b9050610a0082826109b9565b919050565b600067ffffffffffffffff821115610a2057610a1f61098a565b5b610a2982610979565b9050602081019050919050565b82818337600083830152505050565b6000610a58610a5384610a05565b6109ea565b905082815260208101848484011115610a7457610a73610974565b5b610a7f848285610a36565b509392505050565b600082601f830112610a9c57610a9b61096f565b5b8135610aac848260208601610a45565b91505092915050565b6000819050919050565b610ac881610ab5565b8114610ad357600080fd5b50565b600081359050610ae581610abf565b92915050565b60008060008060008060c08789031215610b0857610b07610965565b5b600087013567ffffffffffffffff811115610b2657610b2561096a565b5b610b3289828a01610a87565b9650506020610b4389828a01610ad6565b955050604087013567ffffffffffffffff811115610b6457610b6361096a565b5b610b7089828a01610a87565b945050606087013567ffffffffffffffff811115610b9157610b9061096a565b5b610b9d89828a01610a87565b935050608087013567ffffffffffffffff811115610bbe57610bbd61096a565b5b610bca89828a01610a87565b92505060a087013567ffffffffffffffff811115610beb57610bea61096a565b5b610bf789828a01610a87565b9150509295509295509295565b610c0d81610ab5565b82525050565b6000602082019050610c286000830184610c04565b92915050565b600060208284031215610c4457610c43610965565b5b6000610c5284828501610ad6565b91505092915050565b600081519050919050565b600082825260208201905092915050565b60005b83811015610c95578082015181840152602081019050610c7a565b83811115610ca4576000848401525b50505050565b6000610cb582610c5b565b610cbf8185610c66565b9350610ccf818560208601610c77565b610cd881610979565b840191505092915050565b610cec81610ab5565b82525050565b600060e0830160008301518482036000860152610d0f8282610caa565b9150506020830151610d246020860182610ce3565b5060408301518482036040860152610d3c8282610caa565b91505060608301518482036060860152610d568282610caa565b91505060808301518482036080860152610d708282610caa565b91505060a0830151610d8560a0860182610ce3565b5060c083015184820360c0860152610d9d8282610caa565b9150508091505092915050565b60006020820190508181036000830152610dc48184610cf2565b905092915050565b600082825260208201905092915050565b6000610de882610c5b565b610df28185610dcc565b9350610e02818560208601610c77565b610e0b81610979565b840191505092915050565b600060e0820190508181036000830152610e30818a610ddd565b9050610e3f6020830189610c04565b8181036040830152610e518188610ddd565b90508181036060830152610e658187610ddd565b90508181036080830152610e798186610ddd565b9050610e8860a0830185610c04565b81810360c0830152610e9a8184610ddd565b905098975050505050505050565b7f496e646578206f7574206f6620626f756e647300000000000000000000000000600082015250565b6000610ede601383610dcc565b9150610ee982610ea8565b602082019050919050565b60006020820190508181036000830152610f0d81610ed1565b9050919050565b7f4e487b7100000000000000000000000000000000000000000000000000000000600052603260045260246000fd5b7f4e487b7100000000000000000000000000000000000000000000000000000000600052602260045260246000fd5b60006002820490506001821680610f8a57607f821691505b602082108103610f9d57610f9c610f43565b5b5091905056fea2646970667358221220e9d45b462cfa640c50a22ec011985ca1089ee91514b39d5c8078e69cc0aa1dbf64736f6c634300080d0033",
  "immutableReferences": {},
  "source": "// SPDX-License-Identifier: MIT \npragma solidity ^0.8.13;\n\ncontract PetManagement {\n    struct Pet {\n        string name;\n        uint age;\n        string breed;\n        string species;  // Add species field\n        string owner;    // Add owner field\n        uint timestamp;  // Add timestamp field\n        string action;   // Add action field\n    }\n\n    Pet[] public pets;\n\n    function addPet(\n        string memory petName,\n        uint petAge,\n        string memory petBreed,\n        string memory petSpecies,  // Add species parameter\n        string memory petOwner,    // Add owner parameter\n        string memory petAction    // Add action parameter\n    ) public {\n        Pet memory newPet = Pet({\n            name: petName,\n            age: petAge,\n            breed: petBreed,\n            species: petSpecies,\n            owner: petOwner,\n            timestamp: block.timestamp,\n            action: petAction\n        });\n\n        pets.push(newPet);\n    }\n\n    function getPetCount() public view returns (uint) {\n        return pets.length;\n    }\n\n    function getPets(uint index) public view returns (Pet memory) {\n        require(index < pets.length, \"Index out of bounds\");\n        return pets[index];\n    }\n}\n",
  "sourcePath": "C:\\Users\\Gilead\\Documents\\HappyPaws\\final\\HappyPawsDApp1.4-master\\HappyPawsDApp1.4-master\\contracts\\AccountManagement.sol",
  "compiler": {
    "name": "solc",
    "version": "0.8.13+commit.abaa5c0e.Emscripten.clang"
  },
  "schemaVersion": "3.4.16",
  "updatedAt": "2024-06-11T01:15:20.187Z",
  "devdoc": {
    "kind": "dev",
    "methods": {},
    "version": 1
  },
  "userdoc": {
    "kind": "user",
    "methods": {},
    "version": 1
  }
}