{
  "contractName": "UserManagement",
  "abi": [
    {
      "anonymous": false,
      "inputs": [
        {
          "indexed": true,
          "internalType": "uint256",
          "name": "userId",
          "type": "uint256"
        },
        {
          "indexed": true,
          "internalType": "string",
          "name": "username",
          "type": "string"
        },
        {
          "indexed": false,
          "internalType": "uint8",
          "name": "role",
          "type": "uint8"
        }
      ],
      "name": "AccountCreated",
      "type": "event"
    },
    {
      "anonymous": false,
      "inputs": [
        {
          "indexed": true,
          "internalType": "string",
          "name": "username",
          "type": "string"
        }
      ],
      "name": "PasswordChanged",
      "type": "event"
    },
    {
      "anonymous": false,
      "inputs": [
        {
          "indexed": true,
          "internalType": "string",
          "name": "username",
          "type": "string"
        },
        {
          "indexed": false,
          "internalType": "uint256",
          "name": "userId",
          "type": "uint256"
        },
        {
          "indexed": false,
          "internalType": "uint8",
          "name": "role",
          "type": "uint8"
        }
      ],
      "name": "UserLoggedIn",
      "type": "event"
    },
    {
      "anonymous": false,
      "inputs": [
        {
          "indexed": true,
          "internalType": "string",
          "name": "username",
          "type": "string"
        }
      ],
      "name": "UserLoggedOut",
      "type": "event"
    },
    {
      "inputs": [],
      "name": "totalUsers",
      "outputs": [
        {
          "internalType": "uint256",
          "name": "",
          "type": "uint256"
        }
      ],
      "stateMutability": "view",
      "type": "function",
      "constant": true
    },
    {
      "inputs": [
        {
          "internalType": "uint256",
          "name": "",
          "type": "uint256"
        }
      ],
      "name": "userAddresses",
      "outputs": [
        {
          "internalType": "address",
          "name": "",
          "type": "address"
        }
      ],
      "stateMutability": "view",
      "type": "function",
      "constant": true
    },
    {
      "inputs": [
        {
          "internalType": "address",
          "name": "",
          "type": "address"
        }
      ],
      "name": "users",
      "outputs": [
        {
          "internalType": "uint256",
          "name": "userId",
          "type": "uint256"
        },
        {
          "internalType": "string",
          "name": "username",
          "type": "string"
        },
        {
          "internalType": "string",
          "name": "password",
          "type": "string"
        },
        {
          "internalType": "string",
          "name": "fullname",
          "type": "string"
        },
        {
          "internalType": "string",
          "name": "useraddress",
          "type": "string"
        },
        {
          "internalType": "string",
          "name": "contact",
          "type": "string"
        },
        {
          "internalType": "uint8",
          "name": "role",
          "type": "uint8"
        }
      ],
      "stateMutability": "view",
      "type": "function",
      "constant": true
    },
    {
      "inputs": [
        {
          "internalType": "string",
          "name": "_username",
          "type": "string"
        },
        {
          "internalType": "string",
          "name": "_password",
          "type": "string"
        },
        {
          "internalType": "string",
          "name": "_fullname",
          "type": "string"
        },
        {
          "internalType": "string",
          "name": "_useraddress",
          "type": "string"
        },
        {
          "internalType": "string",
          "name": "_contact",
          "type": "string"
        },
        {
          "internalType": "uint8",
          "name": "_role",
          "type": "uint8"
        }
      ],
      "name": "addUser",
      "outputs": [],
      "stateMutability": "nonpayable",
      "type": "function"
    },
    {
      "inputs": [
        {
          "internalType": "string",
          "name": "_username",
          "type": "string"
        }
      ],
      "name": "getUserByUsername",
      "outputs": [
        {
          "internalType": "string",
          "name": "",
          "type": "string"
        },
        {
          "internalType": "string",
          "name": "",
          "type": "string"
        },
        {
          "internalType": "string",
          "name": "",
          "type": "string"
        },
        {
          "internalType": "string",
          "name": "",
          "type": "string"
        },
        {
          "internalType": "string",
          "name": "",
          "type": "string"
        },
        {
          "internalType": "uint8",
          "name": "",
          "type": "uint8"
        }
      ],
      "stateMutability": "view",
      "type": "function",
      "constant": true
    },
    {
      "inputs": [
        {
          "internalType": "string",
          "name": "_username",
          "type": "string"
        },
        {
          "internalType": "string",
          "name": "_currentPassword",
          "type": "string"
        },
        {
          "internalType": "string",
          "name": "_newPassword",
          "type": "string"
        }
      ],
      "name": "changePasswordByUsername",
      "outputs": [],
      "stateMutability": "nonpayable",
      "type": "function"
    },
    {
      "inputs": [
        {
          "internalType": "string",
          "name": "_username",
          "type": "string"
        },
        {
          "internalType": "string",
          "name": "_password",
          "type": "string"
        }
      ],
      "name": "login",
      "outputs": [],
      "stateMutability": "nonpayable",
      "type": "function"
    },
    {
      "inputs": [
        {
          "internalType": "string",
          "name": "_username",
          "type": "string"
        }
      ],
      "name": "logout",
      "outputs": [],
      "stateMutability": "nonpayable",
      "type": "function"
    },
    {
      "inputs": [
        {
          "internalType": "string",
          "name": "_username",
          "type": "string"
        }
      ],
      "name": "isLoggedIn",
      "outputs": [
        {
          "internalType": "bool",
          "name": "",
          "type": "bool"
        }
      ],
      "stateMutability": "view",
      "type": "function",
      "constant": true
    },
    {
      "inputs": [],
      "name": "getAllUsers",
      "outputs": [
        {
          "internalType": "uint256[]",
          "name": "",
          "type": "uint256[]"
        },
        {
          "internalType": "string[]",
          "name": "",
          "type": "string[]"
        },
        {
          "internalType": "string[]",
          "name": "",
          "type": "string[]"
        },
        {
          "internalType": "string[]",
          "name": "",
          "type": "string[]"
        },
        {
          "internalType": "string[]",
          "name": "",
          "type": "string[]"
        },
        {
          "internalType": "string[]",
          "name": "",
          "type": "string[]"
        },
        {
          "internalType": "uint8[]",
          "name": "",
          "type": "uint8[]"
        }
      ],
      "stateMutability": "view",
      "type": "function",
      "constant": true
    },
    {
      "inputs": [
        {
          "internalType": "string",
          "name": "_username",
          "type": "string"
        },
        {
          "internalType": "string",
          "name": "_password",
          "type": "string"
        },
        {
          "internalType": "string",
          "name": "_fullname",
          "type": "string"
        },
        {
          "internalType": "string",
          "name": "_useraddress",
          "type": "string"
        },
        {
          "internalType": "string",
          "name": "_contact",
          "type": "string"
        },
        {
          "internalType": "uint8",
          "name": "_role",
          "type": "uint8"
        }
      ],
      "name": "updateUserByUsername",
      "outputs": [],
      "stateMutability": "nonpayable",
      "type": "function"
    },
    {
      "inputs": [
        {
          "internalType": "string",
          "name": "_fullName",
          "type": "string"
        }
      ],
      "name": "getUserByFullName",
      "outputs": [
        {
          "internalType": "uint256",
          "name": "",
          "type": "uint256"
        },
        {
          "internalType": "string",
          "name": "",
          "type": "string"
        },
        {
          "internalType": "string",
          "name": "",
          "type": "string"
        },
        {
          "internalType": "string",
          "name": "",
          "type": "string"
        },
        {
          "internalType": "string",
          "name": "",
          "type": "string"
        },
        {
          "internalType": "string",
          "name": "",
          "type": "string"
        },
        {
          "internalType": "uint8",
          "name": "",
          "type": "uint8"
        }
      ],
      "stateMutability": "view",
      "type": "function",
      "constant": true
    }
  ],
  "bytecode": "0x608060405234801561001057600080fd5b506133f6806100206000396000f3fe608060405234801561001057600080fd5b50600436106100b45760003560e01c8063a108259d11610071578063a108259d1461018e578063a87430ba146101aa578063a9a8f35c146101e0578063b7dc402014610216578063bff1f9e114610246578063e2842d7914610264576100b4565b80634cbee813146100b9578063502c9bd5146100d557806358467dbc146101055780635a04788a14610121578063858c4c911461013d5780639f42af6314610159575b600080fd5b6100d360048036038101906100ce9190612510565b610288565b005b6100ef60048036038101906100ea919061258f565b6102fb565b6040516100fc91906125fd565b60405180910390f35b61011f600480360381019061011a9190612618565b61033a565b005b61013b600480360381019061013691906126c9565b610860565b005b610157600480360381019061015291906126c9565b6109df565b005b610173600480360381019061016e9190612510565b610d23565b60405161018596959493929190612879565b60405180910390f35b6101a860048036038101906101a391906128fd565b611162565b005b6101c460048036038101906101bf91906129d0565b611349565b6040516101d79796959493929190612a0c565b60405180910390f35b6101fa60048036038101906101f59190612510565b611640565b60405161020d9796959493929190612a0c565b60405180910390f35b610230600480360381019061022b9190612510565b611bb8565b60405161023d9190612ab9565b60405180910390f35b61024e611bed565b60405161025b9190612ad4565b60405180910390f35b61026c611bf3565b60405161027f9796959493929190612d77565b60405180910390f35b6002816040516102989190612e53565b908152602001604051809103902060006101000a81549060ff0219169055806040516102c49190612e53565b60405180910390207f34ed8fb20d85b6fb0e3319e6d5a3ffdec9605b798082611f73aaab3e4ad7d43060405160405180910390a250565b6004818154811061030b57600080fd5b906000526020600020016000915054906101000a900473ffffffffffffffffffffffffffffffffffffffff1681565b6000808360405161034b9190612e53565b908152602001604051809103902060009054906101000a900473ffffffffffffffffffffffffffffffffffffffff169050600073ffffffffffffffffffffffffffffffffffffffff168173ffffffffffffffffffffffffffffffffffffffff16036103eb576040517f08c379a00000000000000000000000000000000000000000000000000000000081526004016103e290612eb6565b60405180910390fd5b6000600160008373ffffffffffffffffffffffffffffffffffffffff1673ffffffffffffffffffffffffffffffffffffffff1681526020019081526020016000206040518060e00160405290816000820154815260200160018201805461045190612f05565b80601f016020809104026020016040519081016040528092919081815260200182805461047d90612f05565b80156104ca5780601f1061049f576101008083540402835291602001916104ca565b820191906000526020600020905b8154815290600101906020018083116104ad57829003601f168201915b505050505081526020016002820180546104e390612f05565b80601f016020809104026020016040519081016040528092919081815260200182805461050f90612f05565b801561055c5780601f106105315761010080835404028352916020019161055c565b820191906000526020600020905b81548152906001019060200180831161053f57829003601f168201915b5050505050815260200160038201805461057590612f05565b80601f01602080910402602001604051908101604052809291908181526020018280546105a190612f05565b80156105ee5780601f106105c3576101008083540402835291602001916105ee565b820191906000526020600020905b8154815290600101906020018083116105d157829003601f168201915b5050505050815260200160048201805461060790612f05565b80601f016020809104026020016040519081016040528092919081815260200182805461063390612f05565b80156106805780601f1061065557610100808354040283529160200191610680565b820191906000526020600020905b81548152906001019060200180831161066357829003601f168201915b5050505050815260200160058201805461069990612f05565b80601f01602080910402602001604051908101604052809291908181526020018280546106c590612f05565b80156107125780601f106106e757610100808354040283529160200191610712565b820191906000526020600020905b8154815290600101906020018083116106f557829003601f168201915b505050505081526020016006820160009054906101000a900460ff1660ff1660ff168152505090508260405160200161074b9190612e53565b6040516020818303038152906040528051906020012081604001516040516020016107769190612e53565b60405160208183030381529060405280519060200120146107cc576040517f08c379a00000000000000000000000000000000000000000000000000000000081526004016107c390612f82565b60405180910390fd5b60016002856040516107de9190612e53565b908152602001604051809103902060006101000a81548160ff021916908315150217905550836040516108119190612e53565b60405180910390207fac36e5aa66594a67328d673021a2dfc48de8a23e90e72959ad987cc222b245b182600001518360c00151604051610852929190612fa2565b60405180910390a250505050565b600080876040516108719190612e53565b908152602001604051809103902060009054906101000a900473ffffffffffffffffffffffffffffffffffffffff169050600073ffffffffffffffffffffffffffffffffffffffff168173ffffffffffffffffffffffffffffffffffffffff1603610911576040517f08c379a000000000000000000000000000000000000000000000000000000000815260040161090890612eb6565b60405180910390fd5b6000600160008373ffffffffffffffffffffffffffffffffffffffff1673ffffffffffffffffffffffffffffffffffffffff16815260200190815260200160002090508681600201908051906020019061096c929190612313565b5085816003019080519060200190610985929190612313565b508481600401908051906020019061099e929190612313565b50838160050190805190602001906109b7929190612313565b50828160060160006101000a81548160ff021916908360ff1602179055505050505050505050565b600073ffffffffffffffffffffffffffffffffffffffff16600087604051610a079190612e53565b908152602001604051809103902060009054906101000a900473ffffffffffffffffffffffffffffffffffffffff1673ffffffffffffffffffffffffffffffffffffffff1614610a8c576040517f08c379a0000000000000000000000000000000000000000000000000000000008152600401610a8390613017565b60405180910390fd5b60036000815480929190610a9f90613066565b919050555060003342604051602001610ab9929190613117565b6040516020818303038152906040528051906020012060601c90506040518060e0016040528060035481526020018881526020018781526020018681526020018581526020018481526020018360ff16815250600160008373ffffffffffffffffffffffffffffffffffffffff1673ffffffffffffffffffffffffffffffffffffffff168152602001908152602001600020600082015181600001556020820151816001019080519060200190610b71929190612313565b506040820151816002019080519060200190610b8e929190612313565b506060820151816003019080519060200190610bab929190612313565b506080820151816004019080519060200190610bc8929190612313565b5060a0820151816005019080519060200190610be5929190612313565b5060c08201518160060160006101000a81548160ff021916908360ff16021790555090505080600088604051610c1b9190612e53565b908152602001604051809103902060006101000a81548173ffffffffffffffffffffffffffffffffffffffff021916908373ffffffffffffffffffffffffffffffffffffffff1602179055506004819080600181540180825580915050600190039060005260206000200160009091909190916101000a81548173ffffffffffffffffffffffffffffffffffffffff021916908373ffffffffffffffffffffffffffffffffffffffff16021790555086604051610cd89190612e53565b60405180910390206003547f93d199a6d06d8664aadb89a60d2172f91b33940210940903b39e7df2064ab92684604051610d129190613143565b60405180910390a350505050505050565b6060806060806060600080600088604051610d3e9190612e53565b908152602001604051809103902060009054906101000a900473ffffffffffffffffffffffffffffffffffffffff169050600073ffffffffffffffffffffffffffffffffffffffff168173ffffffffffffffffffffffffffffffffffffffff1603610dde576040517f08c379a0000000000000000000000000000000000000000000000000000000008152600401610dd590612eb6565b60405180910390fd5b6000600160008373ffffffffffffffffffffffffffffffffffffffff1673ffffffffffffffffffffffffffffffffffffffff1681526020019081526020016000206040518060e001604052908160008201548152602001600182018054610e4490612f05565b80601f0160208091040260200160405190810160405280929190818152602001828054610e7090612f05565b8015610ebd5780601f10610e9257610100808354040283529160200191610ebd565b820191906000526020600020905b815481529060010190602001808311610ea057829003601f168201915b50505050508152602001600282018054610ed690612f05565b80601f0160208091040260200160405190810160405280929190818152602001828054610f0290612f05565b8015610f4f5780601f10610f2457610100808354040283529160200191610f4f565b820191906000526020600020905b815481529060010190602001808311610f3257829003601f168201915b50505050508152602001600382018054610f6890612f05565b80601f0160208091040260200160405190810160405280929190818152602001828054610f9490612f05565b8015610fe15780601f10610fb657610100808354040283529160200191610fe1565b820191906000526020600020905b815481529060010190602001808311610fc457829003601f168201915b50505050508152602001600482018054610ffa90612f05565b80601f016020809104026020016040519081016040528092919081815260200182805461102690612f05565b80156110735780601f1061104857610100808354040283529160200191611073565b820191906000526020600020905b81548152906001019060200180831161105657829003601f168201915b5050505050815260200160058201805461108c90612f05565b80601f01602080910402602001604051908101604052809291908181526020018280546110b890612f05565b80156111055780601f106110da57610100808354040283529160200191611105565b820191906000526020600020905b8154815290600101906020018083116110e857829003601f168201915b505050505081526020016006820160009054906101000a900460ff1660ff1660ff1681525050905080602001518160400151826060015183608001518460a001518560c00151975097509750975097509750505091939550919395565b600080846040516111739190612e53565b908152602001604051809103902060009054906101000a900473ffffffffffffffffffffffffffffffffffffffff169050600073ffffffffffffffffffffffffffffffffffffffff168173ffffffffffffffffffffffffffffffffffffffff1603611213576040517f08c379a000000000000000000000000000000000000000000000000000000000815260040161120a90612eb6565b60405180910390fd5b6000600160008373ffffffffffffffffffffffffffffffffffffffff1673ffffffffffffffffffffffffffffffffffffffff1681526020019081526020016000209050836040516020016112679190612e53565b604051602081830303815290604052805190602001208160020160405160200161129191906131f2565b60405160208183030381529060405280519060200120146112e7576040517f08c379a00000000000000000000000000000000000000000000000000000000081526004016112de90613255565b60405180910390fd5b828160020190805190602001906112ff929190612313565b508460405161130e9190612e53565b60405180910390207ff43e063c64f20348047ffab110a622dca7d94e61542546faccbadb329dfd8e8060405160405180910390a25050505050565b600160205280600052604060002060009150905080600001549080600101805461137290612f05565b80601f016020809104026020016040519081016040528092919081815260200182805461139e90612f05565b80156113eb5780601f106113c0576101008083540402835291602001916113eb565b820191906000526020600020905b8154815290600101906020018083116113ce57829003601f168201915b50505050509080600201805461140090612f05565b80601f016020809104026020016040519081016040528092919081815260200182805461142c90612f05565b80156114795780601f1061144e57610100808354040283529160200191611479565b820191906000526020600020905b81548152906001019060200180831161145c57829003601f168201915b50505050509080600301805461148e90612f05565b80601f01602080910402602001604051908101604052809291908181526020018280546114ba90612f05565b80156115075780601f106114dc57610100808354040283529160200191611507565b820191906000526020600020905b8154815290600101906020018083116114ea57829003601f168201915b50505050509080600401805461151c90612f05565b80601f016020809104026020016040519081016040528092919081815260200182805461154890612f05565b80156115955780601f1061156a57610100808354040283529160200191611595565b820191906000526020600020905b81548152906001019060200180831161157857829003601f168201915b5050505050908060050180546115aa90612f05565b80601f01602080910402602001604051908101604052809291908181526020018280546115d690612f05565b80156116235780601f106115f857610100808354040283529160200191611623565b820191906000526020600020905b81548152906001019060200180831161160657829003601f168201915b5050505050908060060160009054906101000a900460ff16905087565b60006060806060806060600080600090505b600354811015611b71576000600160006004848154811061167657611675613275565b5b9060005260206000200160009054906101000a900473ffffffffffffffffffffffffffffffffffffffff1673ffffffffffffffffffffffffffffffffffffffff1673ffffffffffffffffffffffffffffffffffffffff1681526020019081526020016000206040518060e00160405290816000820154815260200160018201805461170090612f05565b80601f016020809104026020016040519081016040528092919081815260200182805461172c90612f05565b80156117795780601f1061174e57610100808354040283529160200191611779565b820191906000526020600020905b81548152906001019060200180831161175c57829003601f168201915b5050505050815260200160028201805461179290612f05565b80601f01602080910402602001604051908101604052809291908181526020018280546117be90612f05565b801561180b5780601f106117e05761010080835404028352916020019161180b565b820191906000526020600020905b8154815290600101906020018083116117ee57829003601f168201915b5050505050815260200160038201805461182490612f05565b80601f016020809104026020016040519081016040528092919081815260200182805461185090612f05565b801561189d5780601f106118725761010080835404028352916020019161189d565b820191906000526020600020905b81548152906001019060200180831161188057829003601f168201915b505050505081526020016004820180546118b690612f05565b80601f01602080910402602001604051908101604052809291908181526020018280546118e290612f05565b801561192f5780601f106119045761010080835404028352916020019161192f565b820191906000526020600020905b81548152906001019060200180831161191257829003601f168201915b5050505050815260200160058201805461194890612f05565b80601f016020809104026020016040519081016040528092919081815260200182805461197490612f05565b80156119c15780601f10611996576101008083540402835291602001916119c1565b820191906000526020600020905b8154815290600101906020018083116119a457829003601f168201915b505050505081526020016006820160009054906101000a900460ff1660ff1660ff16815250509050600081606001515114158015611a01575060008a5114155b8015611a135750895181606001515110155b15611b5d576000805b8b51836060015151611a2e91906132a4565b8111611b1b5760006001905060005b8d51811015611af6578d8181518110611a5957611a58613275565b5b602001015160f81c60f81b7effffffffffffffffffffffffffffffffffffffffffffffffffffffffffffff191685606001518285611a9791906132d8565b81518110611aa857611aa7613275565b5b602001015160f81c60f81b7effffffffffffffffffffffffffffffffffffffffffffffffffffffffffffff191614611ae35760009150611af6565b8080611aee90613066565b915050611a3d565b508015611b07576001925050611b1b565b508080611b1390613066565b915050611a1c565b508015611b5b57816000015182602001518360400151846060015185608001518660a001518760c001519950995099509950995099509950505050611bad565b505b508080611b6990613066565b915050611652565b506040517f08c379a0000000000000000000000000000000000000000000000000000000008152600401611ba4906133a0565b60405180910390fd5b919395979092949650565b6000600282604051611bca9190612e53565b908152602001604051809103902060009054906101000a900460ff169050919050565b60035481565b6060806060806060806060600060035467ffffffffffffffff811115611c1c57611c1b6123e5565b5b604051908082528060200260200182016040528015611c4a5781602001602082028036833780820191505090505b509050600060035467ffffffffffffffff811115611c6b57611c6a6123e5565b5b604051908082528060200260200182016040528015611c9e57816020015b6060815260200190600190039081611c895790505b509050600060035467ffffffffffffffff811115611cbf57611cbe6123e5565b5b604051908082528060200260200182016040528015611cf257816020015b6060815260200190600190039081611cdd5790505b509050600060035467ffffffffffffffff811115611d1357611d126123e5565b5b604051908082528060200260200182016040528015611d4657816020015b6060815260200190600190039081611d315790505b509050600060035467ffffffffffffffff811115611d6757611d666123e5565b5b604051908082528060200260200182016040528015611d9a57816020015b6060815260200190600190039081611d855790505b509050600060035467ffffffffffffffff811115611dbb57611dba6123e5565b5b604051908082528060200260200182016040528015611dee57816020015b6060815260200190600190039081611dd95790505b509050600060035467ffffffffffffffff811115611e0f57611e0e6123e5565b5b604051908082528060200260200182016040528015611e3d5781602001602082028036833780820191505090505b50905060005b6003548110156122ed5760006001600060048481548110611e6757611e66613275565b5b9060005260206000200160009054906101000a900473ffffffffffffffffffffffffffffffffffffffff1673ffffffffffffffffffffffffffffffffffffffff1673ffffffffffffffffffffffffffffffffffffffff1681526020019081526020016000206040518060e001604052908160008201548152602001600182018054611ef190612f05565b80601f0160208091040260200160405190810160405280929190818152602001828054611f1d90612f05565b8015611f6a5780601f10611f3f57610100808354040283529160200191611f6a565b820191906000526020600020905b815481529060010190602001808311611f4d57829003601f168201915b50505050508152602001600282018054611f8390612f05565b80601f0160208091040260200160405190810160405280929190818152602001828054611faf90612f05565b8015611ffc5780601f10611fd157610100808354040283529160200191611ffc565b820191906000526020600020905b815481529060010190602001808311611fdf57829003601f168201915b5050505050815260200160038201805461201590612f05565b80601f016020809104026020016040519081016040528092919081815260200182805461204190612f05565b801561208e5780601f106120635761010080835404028352916020019161208e565b820191906000526020600020905b81548152906001019060200180831161207157829003601f168201915b505050505081526020016004820180546120a790612f05565b80601f01602080910402602001604051908101604052809291908181526020018280546120d390612f05565b80156121205780601f106120f557610100808354040283529160200191612120565b820191906000526020600020905b81548152906001019060200180831161210357829003601f168201915b5050505050815260200160058201805461213990612f05565b80601f016020809104026020016040519081016040528092919081815260200182805461216590612f05565b80156121b25780601f10612187576101008083540402835291602001916121b2565b820191906000526020600020905b81548152906001019060200180831161219557829003601f168201915b505050505081526020016006820160009054906101000a900460ff1660ff1660ff1681525050905080600001518983815181106121f2576121f1613275565b5b602002602001018181525050806020015188838151811061221657612215613275565b5b6020026020010181905250806040015187838151811061223957612238613275565b5b6020026020010181905250806060015186838151811061225c5761225b613275565b5b6020026020010181905250806080015185838151811061227f5761227e613275565b5b60200260200101819052508060a001518483815181106122a2576122a1613275565b5b60200260200101819052508060c001518383815181106122c5576122c4613275565b5b602002602001019060ff16908160ff16815250505080806122e590613066565b915050611e43565b50868686868686869d509d509d509d509d509d509d505050505050505090919293949596565b82805461231f90612f05565b90600052602060002090601f0160209004810192826123415760008555612388565b82601f1061235a57805160ff1916838001178555612388565b82800160010185558215612388579182015b8281111561238757825182559160200191906001019061236c565b5b5090506123959190612399565b5090565b5b808211156123b257600081600090555060010161239a565b5090565b6000604051905090565b600080fd5b600080fd5b600080fd5b600080fd5b6000601f19601f8301169050919050565b7f4e487b7100000000000000000000000000000000000000000000000000000000600052604160045260246000fd5b61241d826123d4565b810181811067ffffffffffffffff8211171561243c5761243b6123e5565b5b80604052505050565b600061244f6123b6565b905061245b8282612414565b919050565b600067ffffffffffffffff82111561247b5761247a6123e5565b5b612484826123d4565b9050602081019050919050565b82818337600083830152505050565b60006124b36124ae84612460565b612445565b9050828152602081018484840111156124cf576124ce6123cf565b5b6124da848285612491565b509392505050565b600082601f8301126124f7576124f66123ca565b5b81356125078482602086016124a0565b91505092915050565b600060208284031215612526576125256123c0565b5b600082013567ffffffffffffffff811115612544576125436123c5565b5b612550848285016124e2565b91505092915050565b6000819050919050565b61256c81612559565b811461257757600080fd5b50565b60008135905061258981612563565b92915050565b6000602082840312156125a5576125a46123c0565b5b60006125b38482850161257a565b91505092915050565b600073ffffffffffffffffffffffffffffffffffffffff82169050919050565b60006125e7826125bc565b9050919050565b6125f7816125dc565b82525050565b600060208201905061261260008301846125ee565b92915050565b6000806040838503121561262f5761262e6123c0565b5b600083013567ffffffffffffffff81111561264d5761264c6123c5565b5b612659858286016124e2565b925050602083013567ffffffffffffffff81111561267a576126796123c5565b5b612686858286016124e2565b9150509250929050565b600060ff82169050919050565b6126a681612690565b81146126b157600080fd5b50565b6000813590506126c38161269d565b92915050565b60008060008060008060c087890312156126e6576126e56123c0565b5b600087013567ffffffffffffffff811115612704576127036123c5565b5b61271089828a016124e2565b965050602087013567ffffffffffffffff811115612731576127306123c5565b5b61273d89828a016124e2565b955050604087013567ffffffffffffffff81111561275e5761275d6123c5565b5b61276a89828a016124e2565b945050606087013567ffffffffffffffff81111561278b5761278a6123c5565b5b61279789828a016124e2565b935050608087013567ffffffffffffffff8111156127b8576127b76123c5565b5b6127c489828a016124e2565b92505060a06127d589828a016126b4565b9150509295509295509295565b600081519050919050565b600082825260208201905092915050565b60005b8381101561281c578082015181840152602081019050612801565b8381111561282b576000848401525b50505050565b600061283c826127e2565b61284681856127ed565b93506128568185602086016127fe565b61285f816123d4565b840191505092915050565b61287381612690565b82525050565b600060c08201905081810360008301526128938189612831565b905081810360208301526128a78188612831565b905081810360408301526128bb8187612831565b905081810360608301526128cf8186612831565b905081810360808301526128e38185612831565b90506128f260a083018461286a565b979650505050505050565b600080600060608486031215612916576129156123c0565b5b600084013567ffffffffffffffff811115612934576129336123c5565b5b612940868287016124e2565b935050602084013567ffffffffffffffff811115612961576129606123c5565b5b61296d868287016124e2565b925050604084013567ffffffffffffffff81111561298e5761298d6123c5565b5b61299a868287016124e2565b9150509250925092565b6129ad816125dc565b81146129b857600080fd5b50565b6000813590506129ca816129a4565b92915050565b6000602082840312156129e6576129e56123c0565b5b60006129f4848285016129bb565b91505092915050565b612a0681612559565b82525050565b600060e082019050612a21600083018a6129fd565b8181036020830152612a338189612831565b90508181036040830152612a478188612831565b90508181036060830152612a5b8187612831565b90508181036080830152612a6f8186612831565b905081810360a0830152612a838185612831565b9050612a9260c083018461286a565b98975050505050505050565b60008115159050919050565b612ab381612a9e565b82525050565b6000602082019050612ace6000830184612aaa565b92915050565b6000602082019050612ae960008301846129fd565b92915050565b600081519050919050565b600082825260208201905092915050565b6000819050602082019050919050565b612b2481612559565b82525050565b6000612b368383612b1b565b60208301905092915050565b6000602082019050919050565b6000612b5a82612aef565b612b648185612afa565b9350612b6f83612b0b565b8060005b83811015612ba0578151612b878882612b2a565b9750612b9283612b42565b925050600181019050612b73565b5085935050505092915050565b600081519050919050565b600082825260208201905092915050565b6000819050602082019050919050565b600082825260208201905092915050565b6000612bf5826127e2565b612bff8185612bd9565b9350612c0f8185602086016127fe565b612c18816123d4565b840191505092915050565b6000612c2f8383612bea565b905092915050565b6000602082019050919050565b6000612c4f82612bad565b612c598185612bb8565b935083602082028501612c6b85612bc9565b8060005b85811015612ca75784840389528151612c888582612c23565b9450612c9383612c37565b925060208a01995050600181019050612c6f565b50829750879550505050505092915050565b600081519050919050565b600082825260208201905092915050565b6000819050602082019050919050565b612cee81612690565b82525050565b6000612d008383612ce5565b60208301905092915050565b6000602082019050919050565b6000612d2482612cb9565b612d2e8185612cc4565b9350612d3983612cd5565b8060005b83811015612d6a578151612d518882612cf4565b9750612d5c83612d0c565b925050600181019050612d3d565b5085935050505092915050565b600060e0820190508181036000830152612d91818a612b4f565b90508181036020830152612da58189612c44565b90508181036040830152612db98188612c44565b90508181036060830152612dcd8187612c44565b90508181036080830152612de18186612c44565b905081810360a0830152612df58185612c44565b905081810360c0830152612e098184612d19565b905098975050505050505050565b600081905092915050565b6000612e2d826127e2565b612e378185612e17565b9350612e478185602086016127fe565b80840191505092915050565b6000612e5f8284612e22565b915081905092915050565b7f5573657220646f6573206e6f7420657869737400000000000000000000000000600082015250565b6000612ea06013836127ed565b9150612eab82612e6a565b602082019050919050565b60006020820190508181036000830152612ecf81612e93565b9050919050565b7f4e487b7100000000000000000000000000000000000000000000000000000000600052602260045260246000fd5b60006002820490506001821680612f1d57607f821691505b602082108103612f3057612f2f612ed6565b5b50919050565b7f496e636f72726563742070617373776f72640000000000000000000000000000600082015250565b6000612f6c6012836127ed565b9150612f7782612f36565b602082019050919050565b60006020820190508181036000830152612f9b81612f5f565b9050919050565b6000604082019050612fb760008301856129fd565b612fc4602083018461286a565b9392505050565b7f5573657220616c72656164792065786973747300000000000000000000000000600082015250565b60006130016013836127ed565b915061300c82612fcb565b602082019050919050565b6000602082019050818103600083015261303081612ff4565b9050919050565b7f4e487b7100000000000000000000000000000000000000000000000000000000600052601160045260246000fd5b600061307182612559565b91507fffffffffffffffffffffffffffffffffffffffffffffffffffffffffffffffff82036130a3576130a2613037565b5b600182019050919050565b60008160601b9050919050565b60006130c6826130ae565b9050919050565b60006130d8826130bb565b9050919050565b6130f06130eb826125dc565b6130cd565b82525050565b6000819050919050565b61311161310c82612559565b6130f6565b82525050565b600061312382856130df565b6014820191506131338284613100565b6020820191508190509392505050565b6000602082019050613158600083018461286a565b92915050565b60008190508160005260206000209050919050565b6000815461318081612f05565b61318a8186612e17565b945060018216600081146131a557600181146131b6576131e9565b60ff198316865281860193506131e9565b6131bf8561315e565b60005b838110156131e1578154818901526001820191506020810190506131c2565b838801955050505b50505092915050565b60006131fe8284613173565b915081905092915050565b7f496e636f72726563742063757272656e742070617373776f7264000000000000600082015250565b600061323f601a836127ed565b915061324a82613209565b602082019050919050565b6000602082019050818103600083015261326e81613232565b9050919050565b7f4e487b7100000000000000000000000000000000000000000000000000000000600052603260045260246000fd5b60006132af82612559565b91506132ba83612559565b9250828210156132cd576132cc613037565b5b828203905092915050565b60006132e382612559565b91506132ee83612559565b9250827fffffffffffffffffffffffffffffffffffffffffffffffffffffffffffffffff0382111561332357613322613037565b5b828201905092915050565b7f557365722077697468207468652070726f76696465642066756c6c206e616d6560008201527f20646f6573206e6f742065786973740000000000000000000000000000000000602082015250565b600061338a602f836127ed565b91506133958261332e565b604082019050919050565b600060208201905081810360008301526133b98161337d565b905091905056fea2646970667358221220a02f9cecf0faf546abaf1bcd77aa40e6b30a0805ac821ddc3327c1fc352449ef64736f6c634300080d0033",
  "immutableReferences": {},
  "source": "// SPDX-License-Identifier: MIT\npragma solidity ^0.8.0;\n\ncontract UserManagement {\n    struct User {\n        uint userId;\n        string username;\n        string password;\n        string fullname;\n        string useraddress;\n        string contact;\n        uint8 role; // 0: Regular user, 1: Admin\n    }\n\n    mapping(string => address) private usernameToAddress;\n    mapping(address => User) public users;\n    mapping(string => bool) private loggedIn;\n    uint public totalUsers;\n    address[] public userAddresses; // Maintain an array of user addresses\n\n    event AccountCreated(uint indexed userId, string indexed username, uint8 role);\n    event PasswordChanged(string indexed username);\n    event UserLoggedIn(string indexed username, uint userId, uint8 role);\n    event UserLoggedOut(string indexed username);\n\n    // Function to add a new user account\n    function addUser(\n        string memory _username,\n        string memory _password,\n        string memory _fullname,\n        string memory _useraddress,\n        string memory _contact,\n        uint8 _role\n    ) public {\n        require(usernameToAddress[_username] == address(0), \"User already exists\");\n        totalUsers++;\n        address newUserAddress = address(bytes20(keccak256(abi.encodePacked(msg.sender, block.timestamp)))); // Generate a new address for the user\n        users[newUserAddress] = User(totalUsers, _username, _password, _fullname, _useraddress, _contact, _role);\n        usernameToAddress[_username] = newUserAddress;\n        userAddresses.push(newUserAddress); // Add the new user address to the array\n        emit AccountCreated(totalUsers, _username, _role);\n    }\n\n    // Function to get user details by username\n    function getUserByUsername(string memory _username) public view returns (string memory, string memory, string memory, string memory, string memory, uint8) {\n        address userAddress = usernameToAddress[_username];\n        require(userAddress != address(0), \"User does not exist\");\n        User memory user = users[userAddress];\n        return (user.username, user.password, user.fullname, user.useraddress, user.contact, user.role);\n    }\n    \n\n    // Function to change user password\n    function changePasswordByUsername(string memory _username, string memory _currentPassword, string memory _newPassword) public {\n        address userAddress = usernameToAddress[_username];\n        require(userAddress != address(0), \"User does not exist\");\n        User storage user = users[userAddress];\n        require(keccak256(abi.encodePacked(user.password)) == keccak256(abi.encodePacked(_currentPassword)), \"Incorrect current password\");\n        user.password = _newPassword;\n        emit PasswordChanged(_username);\n    }\n\n    // Function to authenticate user\n    function login(string memory _username, string memory _password) public {\n        address userAddress = usernameToAddress[_username];\n        require(userAddress != address(0), \"User does not exist\");\n        User memory user = users[userAddress];\n        require(keccak256(abi.encodePacked(user.password)) == keccak256(abi.encodePacked(_password)), \"Incorrect password\");\n        loggedIn[_username] = true;\n        emit UserLoggedIn(_username, user.userId, user.role);\n    }\n\n    // Function to logout user\n    function logout(string memory _username) public {\n        delete loggedIn[_username];\n        emit UserLoggedOut(_username);\n    }\n\n    // Function to check if user is logged in\n    function isLoggedIn(string memory _username) public view returns (bool) {\n        return loggedIn[_username];\n    }\n    \n    // Function to get all user IDs and their details\n    function getAllUsers() public view returns (uint[] memory, string[] memory, string[] memory, string[] memory, string[] memory, string[] memory, uint8[] memory) {\n        uint[] memory userIds = new uint[](totalUsers);\n        string[] memory usernames = new string[](totalUsers);\n        string[] memory passwords = new string[](totalUsers);\n        string[] memory fullnames = new string[](totalUsers);\n        string[] memory useraddresses = new string[](totalUsers);\n        string[] memory contacts = new string[](totalUsers);\n        uint8[] memory roles = new uint8[](totalUsers);\n        \n        for (uint i = 0; i < totalUsers; i++) {\n            User memory user = users[userAddresses[i]];\n            userIds[i] = user.userId;\n            usernames[i] = user.username;\n            passwords[i] = user.password;\n            fullnames[i] = user.fullname;\n            useraddresses[i] = user.useraddress;\n            contacts[i] = user.contact;\n            roles[i] = user.role;\n        }\n        \n        return (userIds, usernames, passwords, fullnames, useraddresses, contacts, roles);\n    }\n\n\n    // Function to update user details by username\n    function updateUserByUsername(\n        string memory _username,\n        string memory _password,\n        string memory _fullname,\n        string memory _useraddress,\n        string memory _contact,\n        uint8 _role\n    ) public {\n        address userAddress = usernameToAddress[_username];\n        require(userAddress != address(0), \"User does not exist\");\n        User storage user = users[userAddress];\n        \n        user.password = _password;\n        user.fullname = _fullname;\n        user.useraddress = _useraddress;\n        user.contact = _contact;\n        user.role = _role;\n    }\n    \n\n    function getUserByFullName(string memory _fullName) public view returns (uint, string memory, string memory, string memory, string memory, string memory, uint8) {\n        for (uint i = 0; i < totalUsers; i++) {\n            User memory user = users[userAddresses[i]];\n            if (bytes(user.fullname).length != 0 && bytes(_fullName).length != 0 && bytes(user.fullname).length >= bytes(_fullName).length) {\n                bool found = false;\n                for (uint j = 0; j <= bytes(user.fullname).length - bytes(_fullName).length; j++) {\n                    bool tugma = true;\n                    for (uint k = 0; k < bytes(_fullName).length; k++) {\n                        if (bytes(user.fullname)[j + k] != bytes(_fullName)[k]) {\n                            tugma = false;\n                            break;\n                        }\n                    }\n                    if (tugma) {\n                        found = true;\n                        break;\n                    }\n                }\n                if (found) {\n                    return (user.userId, user.username, user.password, user.fullname, user.useraddress, user.contact, user.role);\n                }\n            }\n        }\n        revert(\"User with the provided full name does not exist\");\n    }\n\n}\n",
  "sourcePath": "C:\\Users\\Gilead\\Documents\\HappyPaws\\final\\HappyPawsDApp1.4-master\\HappyPawsDApp1.4-master\\contracts\\UserManagement.sol",
  "compiler": {
    "name": "solc",
    "version": "0.8.13+commit.abaa5c0e.Emscripten.clang"
  },
  "schemaVersion": "3.4.16",
  "updatedAt": "2024-06-11T01:15:21.984Z",
  "networkType": "ethereum",
  "devdoc": {
    "kind": "dev",
    "methods": {},
    "version": 1
  },
  "userdoc": {
    "kind": "user",
    "methods": {},
    "version": 1
  }
}